{
  "contractName": "FunderEscrow",
  "abi": [
    {
      "constant": true,
      "inputs": [],
      "name": "EXPIRATION_TIMESTAMP",
      "outputs": [
        {
          "name": "",
          "type": "uint256"
        }
      ],
      "payable": false,
      "stateMutability": "view",
      "type": "function"
    },
    {
      "constant": false,
      "inputs": [
        {
          "name": "",
          "type": "address"
        },
        {
          "name": "",
          "type": "address"
        },
        {
          "name": "",
          "type": "uint256"
        },
        {
          "name": "",
          "type": "bytes"
        }
      ],
      "name": "onERC721Received",
      "outputs": [
        {
          "name": "",
          "type": "bytes4"
        }
      ],
      "payable": false,
      "stateMutability": "nonpayable",
      "type": "function"
    },
    {
      "constant": true,
      "inputs": [
        {
          "name": "",
          "type": "uint256"
        }
      ],
      "name": "FIFOFunder",
      "outputs": [
        {
          "name": "",
          "type": "address"
        }
      ],
      "payable": false,
      "stateMutability": "view",
      "type": "function"
    },
    {
      "constant": false,
      "inputs": [
        {
          "name": "recipient",
          "type": "address"
        }
      ],
      "name": "transferPrimary",
      "outputs": [],
      "payable": false,
      "stateMutability": "nonpayable",
      "type": "function"
    },
    {
      "constant": true,
      "inputs": [],
      "name": "EXIT_CLAUSE_ADDITIONAL_PAYMENT_TO_BUY",
      "outputs": [
        {
          "name": "",
          "type": "uint256"
        }
      ],
      "payable": false,
      "stateMutability": "view",
      "type": "function"
    },
    {
      "constant": true,
      "inputs": [],
      "name": "beneficiary",
      "outputs": [
        {
          "name": "",
          "type": "address"
        }
      ],
      "payable": false,
      "stateMutability": "view",
      "type": "function"
    },
    {
      "constant": false,
      "inputs": [],
      "name": "close",
      "outputs": [],
      "payable": false,
      "stateMutability": "nonpayable",
      "type": "function"
    },
    {
      "constant": false,
      "inputs": [
        {
          "name": "payee",
          "type": "address"
        }
      ],
      "name": "withdraw",
      "outputs": [],
      "payable": false,
      "stateMutability": "nonpayable",
      "type": "function"
    },
    {
      "constant": true,
      "inputs": [],
      "name": "ART_TOKEN",
      "outputs": [
        {
          "name": "",
          "type": "address"
        }
      ],
      "payable": false,
      "stateMutability": "view",
      "type": "function"
    },
    {
      "constant": true,
      "inputs": [],
      "name": "AEL_COMMISSION",
      "outputs": [
        {
          "name": "",
          "type": "uint256"
        }
      ],
      "payable": false,
      "stateMutability": "view",
      "type": "function"
    },
    {
      "constant": true,
      "inputs": [
        {
          "name": "",
          "type": "address"
        }
      ],
      "name": "withdrawalAllowed",
      "outputs": [
        {
          "name": "",
          "type": "bool"
        }
      ],
      "payable": false,
      "stateMutability": "view",
      "type": "function"
    },
    {
      "constant": true,
      "inputs": [],
      "name": "THIRD_PARTY_GALLERY_ADDRESS",
      "outputs": [
        {
          "name": "",
          "type": "address"
        }
      ],
      "payable": false,
      "stateMutability": "view",
      "type": "function"
    },
    {
      "constant": true,
      "inputs": [],
      "name": "EXIT_CLAUSE_PAYOUT_FROM_AEL",
      "outputs": [
        {
          "name": "",
          "type": "uint256"
        }
      ],
      "payable": false,
      "stateMutability": "view",
      "type": "function"
    },
    {
      "constant": false,
      "inputs": [],
      "name": "renounceOwnership",
      "outputs": [],
      "payable": false,
      "stateMutability": "nonpayable",
      "type": "function"
    },
    {
      "constant": true,
      "inputs": [],
      "name": "AEL_COMMISSION_ADDRESS",
      "outputs": [
        {
          "name": "",
          "type": "address"
        }
      ],
      "payable": false,
      "stateMutability": "view",
      "type": "function"
    },
    {
      "constant": false,
      "inputs": [],
      "name": "enableRefunds",
      "outputs": [],
      "payable": false,
      "stateMutability": "nonpayable",
      "type": "function"
    },
    {
      "constant": true,
      "inputs": [],
      "name": "owner",
      "outputs": [
        {
          "name": "",
          "type": "address"
        }
      ],
      "payable": false,
      "stateMutability": "view",
      "type": "function"
    },
    {
      "constant": true,
      "inputs": [],
      "name": "AEL_GALLERY_ADDRESS",
      "outputs": [
        {
          "name": "",
          "type": "address"
        }
      ],
      "payable": false,
      "stateMutability": "view",
      "type": "function"
    },
    {
      "constant": true,
      "inputs": [],
      "name": "isOwner",
      "outputs": [
        {
          "name": "",
          "type": "bool"
        }
      ],
      "payable": false,
      "stateMutability": "view",
      "type": "function"
    },
    {
      "constant": false,
      "inputs": [],
      "name": "beneficiaryWithdraw",
      "outputs": [],
      "payable": false,
      "stateMutability": "nonpayable",
      "type": "function"
    },
    {
      "constant": true,
      "inputs": [],
      "name": "state",
      "outputs": [
        {
          "name": "",
          "type": "uint8"
        }
      ],
      "payable": false,
      "stateMutability": "view",
      "type": "function"
    },
    {
      "constant": true,
      "inputs": [],
      "name": "AEL_FUNDING_ADDRESS",
      "outputs": [
        {
          "name": "",
          "type": "address"
        }
      ],
      "payable": false,
      "stateMutability": "view",
      "type": "function"
    },
    {
      "constant": true,
      "inputs": [],
      "name": "primary",
      "outputs": [
        {
          "name": "",
          "type": "address"
        }
      ],
      "payable": false,
      "stateMutability": "view",
      "type": "function"
    },
    {
      "constant": true,
      "inputs": [],
      "name": "ASSET_TOKEN",
      "outputs": [
        {
          "name": "",
          "type": "address"
        }
      ],
      "payable": false,
      "stateMutability": "view",
      "type": "function"
    },
    {
      "constant": true,
      "inputs": [],
      "name": "PLEDGE_AMOUNT",
      "outputs": [
        {
          "name": "",
          "type": "uint256"
        }
      ],
      "payable": false,
      "stateMutability": "view",
      "type": "function"
    },
    {
      "constant": true,
      "inputs": [],
      "name": "printSoldIndex",
      "outputs": [
        {
          "name": "",
          "type": "uint256"
        }
      ],
      "payable": false,
      "stateMutability": "view",
      "type": "function"
    },
    {
      "constant": true,
      "inputs": [
        {
          "name": "payee",
          "type": "address"
        }
      ],
      "name": "depositsOf",
      "outputs": [
        {
          "name": "",
          "type": "uint256"
        }
      ],
      "payable": false,
      "stateMutability": "view",
      "type": "function"
    },
    {
      "constant": true,
      "inputs": [],
      "name": "MAX_NUMBER_OF_PRINTS",
      "outputs": [
        {
          "name": "",
          "type": "uint256"
        }
      ],
      "payable": false,
      "stateMutability": "view",
      "type": "function"
    },
    {
      "constant": true,
      "inputs": [],
      "name": "GALLERY_FEE_UPON_SALE",
      "outputs": [
        {
          "name": "",
          "type": "uint256"
        }
      ],
      "payable": false,
      "stateMutability": "view",
      "type": "function"
    },
    {
      "constant": true,
      "inputs": [],
      "name": "INVESTOR_RETURN_ON_PLEDGE_AMOUNT_UPON_SALE",
      "outputs": [
        {
          "name": "",
          "type": "uint256"
        }
      ],
      "payable": false,
      "stateMutability": "view",
      "type": "function"
    },
    {
      "constant": true,
      "inputs": [
        {
          "name": "",
          "type": "address"
        }
      ],
      "name": "hasFunderBeenPaid",
      "outputs": [
        {
          "name": "",
          "type": "bool"
        }
      ],
      "payable": false,
      "stateMutability": "view",
      "type": "function"
    },
    {
      "constant": true,
      "inputs": [],
      "name": "funderIndex",
      "outputs": [
        {
          "name": "",
          "type": "uint256"
        }
      ],
      "payable": false,
      "stateMutability": "view",
      "type": "function"
    },
    {
      "constant": false,
      "inputs": [
        {
          "name": "newOwner",
          "type": "address"
        }
      ],
      "name": "transferOwnership",
      "outputs": [],
      "payable": false,
      "stateMutability": "nonpayable",
      "type": "function"
    },
    {
      "constant": false,
      "inputs": [
        {
          "name": "refundee",
          "type": "address"
        }
      ],
      "name": "deposit",
      "outputs": [],
      "payable": true,
      "stateMutability": "payable",
      "type": "function"
    },
    {
      "inputs": [
        {
          "name": "_beneficiary",
          "type": "address"
        },
        {
          "name": "_pledgeAmount",
          "type": "uint256"
        },
        {
          "name": "_investorReturnOnPledgeAmountUponSale",
          "type": "uint256"
        },
        {
          "name": "_galleryFeeUponSale",
          "type": "uint256"
        },
        {
          "name": "_commission",
          "type": "uint256"
        },
        {
          "name": "_maxNumberOfPrints",
          "type": "uint256"
        },
        {
          "name": "_exitClauseAddPayment",
          "type": "uint256"
        },
        {
          "name": "_exitClausePayoutFromAel",
          "type": "uint256"
        },
        {
          "name": "_expTimestamp",
          "type": "uint256"
        },
        {
          "name": "_commissioningGalleryAddr",
          "type": "address"
        },
        {
          "name": "_salesCommissionAddr",
          "type": "address"
        },
        {
          "name": "_sellingGalleryAddr",
          "type": "address"
        },
        {
          "name": "addressNFT",
          "type": "address"
        },
        {
          "name": "addressFT",
          "type": "address"
        }
      ],
      "payable": false,
      "stateMutability": "nonpayable",
      "type": "constructor"
    },
    {
      "anonymous": false,
      "inputs": [
        {
          "indexed": true,
          "name": "oldOwner",
          "type": "address"
        },
        {
          "indexed": true,
          "name": "newOwner",
          "type": "address"
        },
        {
          "indexed": false,
          "name": "timestamp",
          "type": "uint256"
        }
      ],
      "name": "FunderLinked",
      "type": "event"
    },
    {
      "anonymous": false,
      "inputs": [
        {
          "indexed": true,
          "name": "funder",
          "type": "address"
        },
        {
          "indexed": true,
          "name": "amount",
          "type": "uint256"
        },
        {
          "indexed": false,
          "name": "timestamp",
          "type": "uint256"
        }
      ],
      "name": "PrintFunded",
      "type": "event"
    },
    {
      "anonymous": false,
      "inputs": [],
      "name": "RefundsClosed",
      "type": "event"
    },
    {
      "anonymous": false,
      "inputs": [],
      "name": "RefundsEnabled",
      "type": "event"
    },
    {
      "anonymous": false,
      "inputs": [
        {
          "indexed": true,
          "name": "payee",
          "type": "address"
        },
        {
          "indexed": false,
          "name": "weiAmount",
          "type": "uint256"
        }
      ],
      "name": "Deposited",
      "type": "event"
    },
    {
      "anonymous": false,
      "inputs": [
        {
          "indexed": true,
          "name": "payee",
          "type": "address"
        },
        {
          "indexed": false,
          "name": "weiAmount",
          "type": "uint256"
        }
      ],
      "name": "Withdrawn",
      "type": "event"
    },
    {
      "anonymous": false,
      "inputs": [
        {
          "indexed": false,
          "name": "recipient",
          "type": "address"
        }
      ],
      "name": "PrimaryTransferred",
      "type": "event"
    },
    {
      "anonymous": false,
      "inputs": [
        {
          "indexed": true,
          "name": "previousOwner",
          "type": "address"
        },
        {
          "indexed": true,
          "name": "newOwner",
          "type": "address"
        }
      ],
      "name": "OwnershipTransferred",
      "type": "event"
    },
    {
      "constant": false,
      "inputs": [
        {
          "name": "_owner",
          "type": "address"
        },
        {
          "name": "_tokenId",
          "type": "uint256"
        }
      ],
      "name": "link",
      "outputs": [],
      "payable": false,
      "stateMutability": "nonpayable",
      "type": "function"
    },
    {
      "constant": false,
      "inputs": [
        {
          "name": "_numberOfPrints",
          "type": "uint256"
        }
      ],
      "name": "processFundingRequest",
      "outputs": [],
      "payable": false,
      "stateMutability": "nonpayable",
      "type": "function"
    },
    {
      "constant": false,
      "inputs": [
        {
          "name": "_addressToBeApproved",
          "type": "address"
        },
        {
          "name": "_tokenId",
          "type": "uint256"
        }
      ],
      "name": "approveToSpendERC721",
      "outputs": [],
      "payable": false,
      "stateMutability": "nonpayable",
      "type": "function"
    },
    {
      "constant": false,
      "inputs": [
        {
          "name": "_soldBy",
          "type": "bool"
        }
      ],
      "name": "onSpecificPerformance",
      "outputs": [],
      "payable": false,
      "stateMutability": "nonpayable",
      "type": "function"
    },
    {
      "constant": false,
      "inputs": [
        {
          "name": "_receiver",
          "type": "address"
        }
      ],
      "name": "getLockedTokens",
      "outputs": [],
      "payable": false,
      "stateMutability": "nonpayable",
      "type": "function"
    },
    {
      "constant": false,
      "inputs": [],
      "name": "transferExitClausePayout",
      "outputs": [],
      "payable": false,
      "stateMutability": "nonpayable",
      "type": "function"
    },
    {
      "constant": false,
      "inputs": [
        {
          "name": "_buyer",
          "type": "address"
        },
        {
          "name": "_printId",
          "type": "uint256"
        }
      ],
      "name": "exitClauseAdditionalPaymentToBuy",
      "outputs": [
        {
          "name": "",
          "type": "bool"
        }
      ],
      "payable": false,
      "stateMutability": "nonpayable",
      "type": "function"
    },
    {
      "constant": false,
      "inputs": [
        {
          "name": "_funder",
          "type": "address"
        },
        {
          "name": "_pledgeAmount",
          "type": "uint256"
        }
      ],
      "name": "fundPrints",
      "outputs": [
        {
          "name": "",
          "type": "bool"
        }
      ],
      "payable": false,
      "stateMutability": "nonpayable",
      "type": "function"
    }
  ],
  "bytecode": "0x60806040523480156200001157600080fd5b506040516101c08062003dad83398101806040526101c08110156200003557600080fd5b8101908080519060200190929190805190602001909291908051906020019092919080519060200190929190805190602001909291908051906020019092919080519060200190929190805190602001909291908051906020019092919080519060200190929190805190602001909291908051906020019092919080519060200190929190805190602001909291905050508d8d8d8d8d8d8d8d8d8d8d8d8b336000806101000a81548173ffffffffffffffffffffffffffffffffffffffff021916908373ffffffffffffffffffffffffffffffffffffffff1602179055506000809054906101000a900473ffffffffffffffffffffffffffffffffffffffff1673ffffffffffffffffffffffffffffffffffffffff16600073ffffffffffffffffffffffffffffffffffffffff167f8be0079c531659141344cd1fd0a4f28419497f9722a3daafe3b4186f6b6457e060405160405180910390a333600160006101000a81548173ffffffffffffffffffffffffffffffffffffffff021916908373ffffffffffffffffffffffffffffffffffffffff1602179055507f4101e71e974f68df5e9730cc223280b41654676bbb052cdcc735c3337e64d2d9600160009054906101000a900473ffffffffffffffffffffffffffffffffffffffff16604051808273ffffffffffffffffffffffffffffffffffffffff1673ffffffffffffffffffffffffffffffffffffffff16815260200191505060405180910390a1600073ffffffffffffffffffffffffffffffffffffffff168173ffffffffffffffffffffffffffffffffffffffff16141515156200029457600080fd5b80600360016101000a81548173ffffffffffffffffffffffffffffffffffffffff021916908373ffffffffffffffffffffffffffffffffffffffff1602179055506000600360006101000a81548160ff02191690836002811115620002f557fe5b02179055505060008b11151562000358576040517f08c379a000000000000000000000000000000000000000000000000000000000815260040180806020018281038252604481526020018062003c9a6044913960600191505060405180910390fd5b60008a111515620003b5576040517f08c379a000000000000000000000000000000000000000000000000000000000815260040180806020018281038252605881526020018062003bff6058913960600191505060405180910390fd5b60008911151562000412576040517f08c379a000000000000000000000000000000000000000000000000000000000815260040180806020018281038252604281526020018062003d6b6042913960600191505060405180910390fd5b6000881115156200046f576040517f08c379a000000000000000000000000000000000000000000000000000000000815260040180806020018281038252605081526020018062003cde6050913960600191505060405180910390fd5b600087111515620004cc576040517f08c379a000000000000000000000000000000000000000000000000000000000815260040180806020018281038252604b81526020018062003b5f604b913960600191505060405180910390fd5b60008611151562000529576040517f08c379a000000000000000000000000000000000000000000000000000000000815260040180806020018281038252605581526020018062003baa6055913960600191505060405180910390fd5b60008511151562000586576040517f08c379a000000000000000000000000000000000000000000000000000000000815260040180806020018281038252604981526020018062003a086049913960600191505060405180910390fd5b4284111515620005e2576040517f08c379a000000000000000000000000000000000000000000000000000000000815260040180806020018281038252604381526020018062003ad46043913960600191505060405180910390fd5b600073ffffffffffffffffffffffffffffffffffffffff168373ffffffffffffffffffffffffffffffffffffffff16141515156200066c576040517f08c379a000000000000000000000000000000000000000000000000000000000815260040180806020018281038252603f815260200180620039c9603f913960400191505060405180910390fd5b600073ffffffffffffffffffffffffffffffffffffffff168273ffffffffffffffffffffffffffffffffffffffff1614151515620006f6576040517f08c379a000000000000000000000000000000000000000000000000000000000815260040180806020018281038252604881526020018062003b176048913960600191505060405180910390fd5b600073ffffffffffffffffffffffffffffffffffffffff168173ffffffffffffffffffffffffffffffffffffffff161415151562000780576040517f08c379a000000000000000000000000000000000000000000000000000000000815260040180806020018281038252604581526020018062003a516045913960600191505060405180910390fd5b600073ffffffffffffffffffffffffffffffffffffffff168c73ffffffffffffffffffffffffffffffffffffffff16141515156200080a576040517f08c379a000000000000000000000000000000000000000000000000000000000815260040180806020018281038252604381526020018062003c576043913960600191505060405180910390fd5b8a600481905550896005819055508860068190555087600781905550866008819055508560098190555084600a8190555083600b8190555082600c60006101000a81548173ffffffffffffffffffffffffffffffffffffffff021916908373ffffffffffffffffffffffffffffffffffffffff16021790555082600e60006101000a81548173ffffffffffffffffffffffffffffffffffffffff021916908373ffffffffffffffffffffffffffffffffffffffff16021790555081600d60006101000a81548173ffffffffffffffffffffffffffffffffffffffff021916908373ffffffffffffffffffffffffffffffffffffffff16021790555080600f60006101000a81548173ffffffffffffffffffffffffffffffffffffffff021916908373ffffffffffffffffffffffffffffffffffffffff160217905550505050505050505050505050600073ffffffffffffffffffffffffffffffffffffffff168273ffffffffffffffffffffffffffffffffffffffff1614151515620009dc576040517f08c379a000000000000000000000000000000000000000000000000000000000815260040180806020018281038252603e81526020018062003a96603e913960400191505060405180910390fd5b600073ffffffffffffffffffffffffffffffffffffffff168173ffffffffffffffffffffffffffffffffffffffff161415151562000a66576040517f08c379a000000000000000000000000000000000000000000000000000000000815260040180806020018281038252603d81526020018062003d2e603d913960400191505060405180910390fd5b81601560006101000a81548173ffffffffffffffffffffffffffffffffffffffff021916908373ffffffffffffffffffffffffffffffffffffffff16021790555080601460006101000a81548173ffffffffffffffffffffffffffffffffffffffff021916908373ffffffffffffffffffffffffffffffffffffffff1602179055505050505050505050505050505050612ec38062000b066000396000f3fe60806040526004361061026e576000357c0100000000000000000000000000000000000000000000000000000000900480638939ba4911610156578063dcb6150a116100d3578063ee4bbce411610097578063ee4bbce414610cf6578063eed2d4a914610d21578063f04afc6c14610d94578063f076ca5e14610dfd578063f2fde38b14610e28578063f340fa0114610e795761026e565b8063dcb6150a14610be5578063e0980f7314610c10578063e3a9db1a14610c3b578063e3e0054a14610ca0578063ebb5b83214610ccb5761026e565b80639af6549a1161011a5780639af6549a14610a90578063c19d93fb14610aa7578063c440596714610ae0578063c6dbdf6114610b37578063d706200514610b8e5761026e565b80638939ba49146109455780638c52dc411461099c5780638da5cb5b146109b35780638ec8ae6814610a0a5780638f32d59b14610a615761026e565b806343d726d6116101ef5780636a83d4f0116101b35780636a83d4f0146107e35780636b2d95d41461083a5780636e29b7cc1461088b5780636fe8e3e8146108b6578063715018a6146108f35780637171df8a1461090a5761026e565b806343d726d61461069057806351cff8d9146106a757806359e977f2146106f857806361ebc8751461074f578063685ca1941461077a5761026e565b80632348238c116102365780632348238c1461054b5780632c7dd21e1461059c57806338af3eed146105c75780633b49f8401461061e578063422612a2146106795761026e565b806308d6323d14610273578063150b7a021461029e578063165c61df1461040257806317ac945f1461047d5780631f6be686146104d8575b600080fd5b34801561027f57600080fd5b50610288610ebd565b6040518082815260200191505060405180910390f35b3480156102aa57600080fd5b506103ae600480360360808110156102c157600080fd5b81019080803573ffffffffffffffffffffffffffffffffffffffff169060200190929190803573ffffffffffffffffffffffffffffffffffffffff169060200190929190803590602001909291908035906020019064010000000081111561032857600080fd5b82018360208201111561033a57600080fd5b8035906020019184600183028401116401000000008311171561035c57600080fd5b91908080601f016020809104026020016040519081016040528093929190818152602001838380828437600081840152601f19601f820116905080830192505050505050509192919290505050610ec3565b60405180827bffffffffffffffffffffffffffffffffffffffffffffffffffffffff19167bffffffffffffffffffffffffffffffffffffffffffffffffffffffff1916815260200191505060405180910390f35b34801561040e57600080fd5b5061043b6004803603602081101561042557600080fd5b8101908080359060200190929190505050610ef3565b604051808273ffffffffffffffffffffffffffffffffffffffff1673ffffffffffffffffffffffffffffffffffffffff16815260200191505060405180910390f35b34801561048957600080fd5b506104d6600480360360408110156104a057600080fd5b81019080803573ffffffffffffffffffffffffffffffffffffffff16906020019092919080359060200190929190505050610f26565b005b3480156104e457600080fd5b50610531600480360360408110156104fb57600080fd5b81019080803573ffffffffffffffffffffffffffffffffffffffff169060200190929190803590602001909291905050506111a0565b604051808215151515815260200191505060405180910390f35b34801561055757600080fd5b5061059a6004803603602081101561056e57600080fd5b81019080803573ffffffffffffffffffffffffffffffffffffffff1690602001909291905050506112aa565b005b3480156105a857600080fd5b506105b161140b565b6040518082815260200191505060405180910390f35b3480156105d357600080fd5b506105dc611411565b604051808273ffffffffffffffffffffffffffffffffffffffff1673ffffffffffffffffffffffffffffffffffffffff16815260200191505060405180910390f35b34801561062a57600080fd5b506106776004803603604081101561064157600080fd5b81019080803573ffffffffffffffffffffffffffffffffffffffff1690602001909291908035906020019092919050505061143b565b005b34801561068557600080fd5b5061068e61152f565b005b34801561069c57600080fd5b506106a5611702565b005b3480156106b357600080fd5b506106f6600480360360208110156106ca57600080fd5b81019080803573ffffffffffffffffffffffffffffffffffffffff1690602001909291905050506117e4565b005b34801561070457600080fd5b5061070d611804565b604051808273ffffffffffffffffffffffffffffffffffffffff1673ffffffffffffffffffffffffffffffffffffffff16815260200191505060405180910390f35b34801561075b57600080fd5b5061076461182a565b6040518082815260200191505060405180910390f35b34801561078657600080fd5b506107c96004803603602081101561079d57600080fd5b81019080803573ffffffffffffffffffffffffffffffffffffffff169060200190929190505050611830565b604051808215151515815260200191505060405180910390f35b3480156107ef57600080fd5b506107f8611862565b604051808273ffffffffffffffffffffffffffffffffffffffff1673ffffffffffffffffffffffffffffffffffffffff16815260200191505060405180910390f35b34801561084657600080fd5b506108896004803603602081101561085d57600080fd5b81019080803573ffffffffffffffffffffffffffffffffffffffff169060200190929190505050611888565b005b34801561089757600080fd5b506108a06119fa565b6040518082815260200191505060405180910390f35b3480156108c257600080fd5b506108f1600480360360208110156108d957600080fd5b81019080803515159060200190929190505050611a00565b005b3480156108ff57600080fd5b50610908611a64565b005b34801561091657600080fd5b506109436004803603602081101561092d57600080fd5b8101908080359060200190929190505050611b36565b005b34801561095157600080fd5b5061095a611c54565b604051808273ffffffffffffffffffffffffffffffffffffffff1673ffffffffffffffffffffffffffffffffffffffff16815260200191505060405180910390f35b3480156109a857600080fd5b506109b1611c7a565b005b3480156109bf57600080fd5b506109c8611d5c565b604051808273ffffffffffffffffffffffffffffffffffffffff1673ffffffffffffffffffffffffffffffffffffffff16815260200191505060405180910390f35b348015610a1657600080fd5b50610a1f611d85565b604051808273ffffffffffffffffffffffffffffffffffffffff1673ffffffffffffffffffffffffffffffffffffffff16815260200191505060405180910390f35b348015610a6d57600080fd5b50610a76611dab565b604051808215151515815260200191505060405180910390f35b348015610a9c57600080fd5b50610aa5611e02565b005b348015610ab357600080fd5b50610abc611eb7565b60405180826002811115610acc57fe5b60ff16815260200191505060405180910390f35b348015610aec57600080fd5b50610af5611ece565b604051808273ffffffffffffffffffffffffffffffffffffffff1673ffffffffffffffffffffffffffffffffffffffff16815260200191505060405180910390f35b348015610b4357600080fd5b50610b4c611ef4565b604051808273ffffffffffffffffffffffffffffffffffffffff1673ffffffffffffffffffffffffffffffffffffffff16815260200191505060405180910390f35b348015610b9a57600080fd5b50610ba3611f1e565b604051808273ffffffffffffffffffffffffffffffffffffffff1673ffffffffffffffffffffffffffffffffffffffff16815260200191505060405180910390f35b348015610bf157600080fd5b50610bfa611f44565b6040518082815260200191505060405180910390f35b348015610c1c57600080fd5b50610c25611f4a565b6040518082815260200191505060405180910390f35b348015610c4757600080fd5b50610c8a60048036036020811015610c5e57600080fd5b81019080803573ffffffffffffffffffffffffffffffffffffffff169060200190929190505050611f50565b6040518082815260200191505060405180910390f35b348015610cac57600080fd5b50610cb5611f99565b6040518082815260200191505060405180910390f35b348015610cd757600080fd5b50610ce0611f9f565b6040518082815260200191505060405180910390f35b348015610d0257600080fd5b50610d0b611fa5565b6040518082815260200191505060405180910390f35b348015610d2d57600080fd5b50610d7a60048036036040811015610d4457600080fd5b81019080803573ffffffffffffffffffffffffffffffffffffffff16906020019092919080359060200190929190505050611fab565b604051808215151515815260200191505060405180910390f35b348015610da057600080fd5b50610de360048036036020811015610db757600080fd5b81019080803573ffffffffffffffffffffffffffffffffffffffff1690602001909291905050506120e4565b604051808215151515815260200191505060405180910390f35b348015610e0957600080fd5b50610e12612104565b6040518082815260200191505060405180910390f35b348015610e3457600080fd5b50610e7760048036036020811015610e4b57600080fd5b81019080803573ffffffffffffffffffffffffffffffffffffffff16906020019092919050505061210a565b005b610ebb60048036036020811015610e8f57600080fd5b81019080803573ffffffffffffffffffffffffffffffffffffffff169060200190929190505050612129565b005b600b5481565b600063150b7a027c0100000000000000000000000000000000000000000000000000000000029050949350505050565b60106020528060005260406000206000915054906101000a900473ffffffffffffffffffffffffffffffffffffffff1681565b601560009054906101000a900473ffffffffffffffffffffffffffffffffffffffff1673ffffffffffffffffffffffffffffffffffffffff166342842e0e8330846040518463ffffffff167c0100000000000000000000000000000000000000000000000000000000028152600401808473ffffffffffffffffffffffffffffffffffffffff1673ffffffffffffffffffffffffffffffffffffffff1681526020018373ffffffffffffffffffffffffffffffffffffffff1673ffffffffffffffffffffffffffffffffffffffff1681526020018281526020019350505050600060405180830381600087803b15801561101f57600080fd5b505af1158015611033573d6000803e3d6000fd5b505050503073ffffffffffffffffffffffffffffffffffffffff16601560009054906101000a900473ffffffffffffffffffffffffffffffffffffffff1673ffffffffffffffffffffffffffffffffffffffff16636352211e836040518263ffffffff167c01000000000000000000000000000000000000000000000000000000000281526004018082815260200191505060206040518083038186803b1580156110dd57600080fd5b505afa1580156110f1573d6000803e3d6000fd5b505050506040513d602081101561110757600080fd5b810190808051906020019092919050505073ffffffffffffffffffffffffffffffffffffffff1614151561113757fe5b3073ffffffffffffffffffffffffffffffffffffffff168273ffffffffffffffffffffffffffffffffffffffff167f5afe7707ec05a0d5c8f8ef75acd44d9d24bc1d7aff95c1c398661fd871b3cc09426040518082815260200191505060405180910390a35050565b6000600b54421015156111fe576040517f08c379a0000000000000000000000000000000000000000000000000000000008152600401808060200182810382526042815260200180612b506042913960600191505060405180910390fd5b611214600160135461216990919063ffffffff16565b60138190555061124983600c60009054906101000a900473ffffffffffffffffffffffffffffffffffffffff1660095461218a565b15156112a0576040517f08c379a0000000000000000000000000000000000000000000000000000000008152600401808060200182810382526047815260200180612c666047913960600191505060405180910390fd5b6001905092915050565b600160009054906101000a900473ffffffffffffffffffffffffffffffffffffffff1673ffffffffffffffffffffffffffffffffffffffff163373ffffffffffffffffffffffffffffffffffffffff1614151561130657600080fd5b600073ffffffffffffffffffffffffffffffffffffffff168173ffffffffffffffffffffffffffffffffffffffff161415151561134257600080fd5b80600160006101000a81548173ffffffffffffffffffffffffffffffffffffffff021916908373ffffffffffffffffffffffffffffffffffffffff1602179055507f4101e71e974f68df5e9730cc223280b41654676bbb052cdcc735c3337e64d2d9600160009054906101000a900473ffffffffffffffffffffffffffffffffffffffff16604051808273ffffffffffffffffffffffffffffffffffffffff1673ffffffffffffffffffffffffffffffffffffffff16815260200191505060405180910390a150565b60095481565b6000600360019054906101000a900473ffffffffffffffffffffffffffffffffffffffff16905090565b611443611dab565b151561144e57600080fd5b601560009054906101000a900473ffffffffffffffffffffffffffffffffffffffff1673ffffffffffffffffffffffffffffffffffffffff1663095ea7b383836040518363ffffffff167c0100000000000000000000000000000000000000000000000000000000028152600401808373ffffffffffffffffffffffffffffffffffffffff1673ffffffffffffffffffffffffffffffffffffffff16815260200182815260200192505050600060405180830381600087803b15801561151357600080fd5b505af1158015611527573d6000803e3d6000fd5b505050505050565b611537611dab565b151561154257600080fd5b600b544210151561159e576040517f08c379a0000000000000000000000000000000000000000000000000000000008152600401808060200182810382526042815260200180612b506042913960600191505060405180910390fd5b60008060135490505b6012548110156116fe576010600082815260200190815260200160002060009054906101000a900473ffffffffffffffffffffffffffffffffffffffff1691506115fd600160135461216990919063ffffffff16565b60138190555061160f82600a546122c9565b1515611666576040517f08c379a0000000000000000000000000000000000000000000000000000000008152600401808060200182810382526039815260200180612cf46039913960400191505060405180910390fd5b6001601160006010600085815260200190815260200160002060009054906101000a900473ffffffffffffffffffffffffffffffffffffffff1673ffffffffffffffffffffffffffffffffffffffff1673ffffffffffffffffffffffffffffffffffffffff16815260200190815260200160002060006101000a81548160ff02191690831515021790555080806001019150506115a7565b5050565b600160009054906101000a900473ffffffffffffffffffffffffffffffffffffffff1673ffffffffffffffffffffffffffffffffffffffff163373ffffffffffffffffffffffffffffffffffffffff1614151561175e57600080fd5b6000600281111561176b57fe5b600360009054906101000a900460ff16600281111561178657fe5b14151561179257600080fd5b6002600360006101000a81548160ff021916908360028111156117b157fe5b02179055507f088672c3a6e342f7cd94a65ba63b79df24a8973927b4d05d803c44bbf787d12f60405160405180910390a1565b6117ed81611830565b15156117f857600080fd5b611801816123d3565b50565b601560009054906101000a900473ffffffffffffffffffffffffffffffffffffffff1681565b60075481565b60006001600281111561183f57fe5b600360009054906101000a900460ff16600281111561185a57fe5b149050919050565b600f60009054906101000a900473ffffffffffffffffffffffffffffffffffffffff1681565b611890611dab565b151561189b57600080fd5b6000601460009054906101000a900473ffffffffffffffffffffffffffffffffffffffff1673ffffffffffffffffffffffffffffffffffffffff166370a08231306040518263ffffffff167c0100000000000000000000000000000000000000000000000000000000028152600401808273ffffffffffffffffffffffffffffffffffffffff1673ffffffffffffffffffffffffffffffffffffffff16815260200191505060206040518083038186803b15801561195857600080fd5b505afa15801561196c573d6000803e3d6000fd5b505050506040513d602081101561198257600080fd5b8101908080519060200190929190505050905061199f82826122c9565b15156119f6576040517f08c379a0000000000000000000000000000000000000000000000000000000008152600401808060200182810382526031815260200180612de96031913960400191505060405180910390fd5b5050565b600a5481565b600060106000601354815260200190815260200160002060009054906101000a900473ffffffffffffffffffffffffffffffffffffffff169050611a448183612551565b611a5a600160135461216990919063ffffffff16565b6013819055505050565b611a6c611dab565b1515611a7757600080fd5b600073ffffffffffffffffffffffffffffffffffffffff166000809054906101000a900473ffffffffffffffffffffffffffffffffffffffff1673ffffffffffffffffffffffffffffffffffffffff167f8be0079c531659141344cd1fd0a4f28419497f9722a3daafe3b4186f6b6457e060405160405180910390a360008060006101000a81548173ffffffffffffffffffffffffffffffffffffffff021916908373ffffffffffffffffffffffffffffffffffffffff160217905550565b600854601254101515611b94576040517f08c379a0000000000000000000000000000000000000000000000000000000008152600401808060200182810382526045815260200180612c216045913960600191505060405180910390fd5b6000611bab6012548361216990919063ffffffff16565b9050600854811115611bd157611bce6012546008546128eb90919063ffffffff16565b91505b60008090505b82811015611c4f57611beb33600454611fab565b1515611c42576040517f08c379a0000000000000000000000000000000000000000000000000000000008152600401808060200182810382526051815260200180612d646051913960600191505060405180910390fd5b8080600101915050611bd7565b505050565b600d60009054906101000a900473ffffffffffffffffffffffffffffffffffffffff1681565b600160009054906101000a900473ffffffffffffffffffffffffffffffffffffffff1673ffffffffffffffffffffffffffffffffffffffff163373ffffffffffffffffffffffffffffffffffffffff16141515611cd657600080fd5b60006002811115611ce357fe5b600360009054906101000a900460ff166002811115611cfe57fe5b141515611d0a57600080fd5b6001600360006101000a81548160ff02191690836002811115611d2957fe5b02179055507f599d8e5a83cffb867d051598c4d70e805d59802d8081c1c7d6dffc5b6aca2b8960405160405180910390a1565b60008060009054906101000a900473ffffffffffffffffffffffffffffffffffffffff16905090565b600c60009054906101000a900473ffffffffffffffffffffffffffffffffffffffff1681565b60008060009054906101000a900473ffffffffffffffffffffffffffffffffffffffff1673ffffffffffffffffffffffffffffffffffffffff163373ffffffffffffffffffffffffffffffffffffffff1614905090565b600280811115611e0e57fe5b600360009054906101000a900460ff166002811115611e2957fe5b141515611e3557600080fd5b600360019054906101000a900473ffffffffffffffffffffffffffffffffffffffff1673ffffffffffffffffffffffffffffffffffffffff166108fc3073ffffffffffffffffffffffffffffffffffffffff16319081150290604051600060405180830381858888f19350505050158015611eb4573d6000803e3d6000fd5b50565b6000600360009054906101000a900460ff16905090565b600e60009054906101000a900473ffffffffffffffffffffffffffffffffffffffff1681565b6000600160009054906101000a900473ffffffffffffffffffffffffffffffffffffffff16905090565b601460009054906101000a900473ffffffffffffffffffffffffffffffffffffffff1681565b60045481565b60135481565b6000600260008373ffffffffffffffffffffffffffffffffffffffff1673ffffffffffffffffffffffffffffffffffffffff168152602001908152602001600020549050919050565b60085481565b60065481565b60055481565b600080611fb6611411565b9050611fc384828561218a565b151561201a576040517f08c379a0000000000000000000000000000000000000000000000000000000008152600401808060200182810382526047815260200180612cad6047913960600191505060405180910390fd5b8360106000601254815260200190815260200160002060006101000a81548173ffffffffffffffffffffffffffffffffffffffff021916908373ffffffffffffffffffffffffffffffffffffffff160217905550612084600160125461216990919063ffffffff16565b601281905550828473ffffffffffffffffffffffffffffffffffffffff167feac407d549d55c145d873fce28ffd50ad2afa52c105d95fc618c98d351a64cf7426040518082815260200191505060405180910390a3600191505092915050565b60116020528060005260406000206000915054906101000a900460ff1681565b60125481565b612112611dab565b151561211d57600080fd5b6121268161290d565b50565b6000600281111561213657fe5b600360009054906101000a900460ff16600281111561215157fe5b14151561215d57600080fd5b61216681612a07565b50565b600080828401905083811015151561218057600080fd5b8091505092915050565b6000601460009054906101000a900473ffffffffffffffffffffffffffffffffffffffff1673ffffffffffffffffffffffffffffffffffffffff166323b872dd8585856040518463ffffffff167c0100000000000000000000000000000000000000000000000000000000028152600401808473ffffffffffffffffffffffffffffffffffffffff1673ffffffffffffffffffffffffffffffffffffffff1681526020018373ffffffffffffffffffffffffffffffffffffffff1673ffffffffffffffffffffffffffffffffffffffff1681526020018281526020019350505050602060405180830381600087803b15801561228557600080fd5b505af1158015612299573d6000803e3d6000fd5b505050506040513d60208110156122af57600080fd5b810190808051906020019092919050505090509392505050565b6000601460009054906101000a900473ffffffffffffffffffffffffffffffffffffffff1673ffffffffffffffffffffffffffffffffffffffff1663a9059cbb84846040518363ffffffff167c0100000000000000000000000000000000000000000000000000000000028152600401808373ffffffffffffffffffffffffffffffffffffffff1673ffffffffffffffffffffffffffffffffffffffff16815260200182815260200192505050602060405180830381600087803b15801561239057600080fd5b505af11580156123a4573d6000803e3d6000fd5b505050506040513d60208110156123ba57600080fd5b8101908080519060200190929190505050905092915050565b600160009054906101000a900473ffffffffffffffffffffffffffffffffffffffff1673ffffffffffffffffffffffffffffffffffffffff163373ffffffffffffffffffffffffffffffffffffffff1614151561242f57600080fd5b6000600260008373ffffffffffffffffffffffffffffffffffffffff1673ffffffffffffffffffffffffffffffffffffffff1681526020019081526020016000205490506000600260008473ffffffffffffffffffffffffffffffffffffffff1673ffffffffffffffffffffffffffffffffffffffff168152602001908152602001600020819055508173ffffffffffffffffffffffffffffffffffffffff166108fc829081150290604051600060405180830381858888f193505050501580156124fe573d6000803e3d6000fd5b508173ffffffffffffffffffffffffffffffffffffffff167f7084f5476618d8e60b11ef0d7d3f06914655adb8793e28ff7f018d4c76d505d5826040518082815260200191505060405180910390a25050565b801561272157612585600c60009054906101000a900473ffffffffffffffffffffffffffffffffffffffff166006546122c9565b15156125dc576040517f08c379a0000000000000000000000000000000000000000000000000000000008152600401808060200182810382526034815260200180612db56034913960400191505060405180910390fd5b61260a600d60009054906101000a900473ffffffffffffffffffffffffffffffffffffffff166007546122c9565b1515612661576040517f08c379a0000000000000000000000000000000000000000000000000000000008152600401808060200182810382526037815260200180612d2d6037913960400191505060405180910390fd5b61266d826005546122c9565b15156126c4576040517f08c379a0000000000000000000000000000000000000000000000000000000008152600401808060200182810382526033815260200180612e1a6033913960400191505060405180910390fd5b6001601160008473ffffffffffffffffffffffffffffffffffffffff1673ffffffffffffffffffffffffffffffffffffffff16815260200190815260200160002060006101000a81548160ff0219169083151502179055506128e7565b61274f600f60009054906101000a900473ffffffffffffffffffffffffffffffffffffffff166006546122c9565b15156127a6576040517f08c379a0000000000000000000000000000000000000000000000000000000008152600401808060200182810382526040815260200180612be16040913960400191505060405180910390fd5b6127d4600d60009054906101000a900473ffffffffffffffffffffffffffffffffffffffff166007546122c9565b151561282b576040517f08c379a000000000000000000000000000000000000000000000000000000000815260040180806020018281038252604f815260200180612b92604f913960600191505060405180910390fd5b612837826005546122c9565b151561288e576040517f08c379a000000000000000000000000000000000000000000000000000000000815260040180806020018281038252604b815260200180612e4d604b913960600191505060405180910390fd5b6001601160008473ffffffffffffffffffffffffffffffffffffffff1673ffffffffffffffffffffffffffffffffffffffff16815260200190815260200160002060006101000a81548160ff0219169083151502179055505b5050565b60008282111515156128fc57600080fd5b600082840390508091505092915050565b600073ffffffffffffffffffffffffffffffffffffffff168173ffffffffffffffffffffffffffffffffffffffff161415151561294957600080fd5b8073ffffffffffffffffffffffffffffffffffffffff166000809054906101000a900473ffffffffffffffffffffffffffffffffffffffff1673ffffffffffffffffffffffffffffffffffffffff167f8be0079c531659141344cd1fd0a4f28419497f9722a3daafe3b4186f6b6457e060405160405180910390a3806000806101000a81548173ffffffffffffffffffffffffffffffffffffffff021916908373ffffffffffffffffffffffffffffffffffffffff16021790555050565b600160009054906101000a900473ffffffffffffffffffffffffffffffffffffffff1673ffffffffffffffffffffffffffffffffffffffff163373ffffffffffffffffffffffffffffffffffffffff16141515612a6357600080fd5b6000349050612aba81600260008573ffffffffffffffffffffffffffffffffffffffff1673ffffffffffffffffffffffffffffffffffffffff1681526020019081526020016000205461216990919063ffffffff16565b600260008473ffffffffffffffffffffffffffffffffffffffff1673ffffffffffffffffffffffffffffffffffffffff168152602001908152602001600020819055508173ffffffffffffffffffffffffffffffffffffffff167f2da466a7b24304f47e87fa2e1e5a81b9831ce54fec19055ce277ca2f39ba42c4826040518082815260200191505060405180910390a2505056fe696e2046756e646572457363726f773a686173436f6e74726163744578706972656428292e2054686520636f6e747261637420686173206e6f742065787069726564696e2046756e646572457363726f773a7061796f757428292e54726173666572206661696c656420666f7220636f6d6d697373696f6e20666f722074686972642070617274792067616c6c6572792e696e2046756e646572457363726f773a7061796f757428292e54726173666572206661696c656420666f722074686972642070617274792067616c6c6572792e696e2046756e646572457363726f773a70726f6365737346756e64696e675265717565737428292e20416c6c207072696e74732068617665206265656e2066756e6465642e696e2046756e646572457363726f773a65786974436c617573654164646974696f6e616c5061796d656e74546f42757928292e547261736665722066726f6d206661696c65642e696e2046756e646572457363726f773a66756e645072696e747328292e54726173666572206661696c65642066726f6d2066756e64657220746f2062656e65666963696172792e696e2046756e646572457363726f773a7472617366657245786974436c617573655061796f757428292e54726173666572206661696c65642e696e2046756e646572457363726f773a7061796f757428292e54726173666572206661696c656420666f7220636f6d6d697373696f6e2e696e2046756e646572457363726f773a70726f6365737346756e64696e675265717565737428292e204572726f72207768696c6520726563656976696e672074686520706c6564676520616d6f756e742e696e2046756e646572457363726f773a7061796f757428292e54726173666572206661696c656420666f722067616c6c6572792e696e2046756e646572457363726f773a6765744c6f636b6564546f6b656e7328292e54726173666572206661696c65642e696e2046756e646572457363726f773a7061796f757428292e54726173666572206661696c656420666f722066756e6465722e696e2046756e646572457363726f773a7061796f757428292e54726173666572206661696c656420666f722066756e64657220666f722074686972642070617274792067616c6c6572792ea165627a7a723058206d9e3b90c96b057186d8a040658e74ed7fb5e8094ec55ca373bc98220d6608360029696e2046756e646572457363726f773a636f6e7374727563746f7228292e2047616c6c6572792061646472657373206973207a65726f20616464726573732e696e2046756e646572457363726f773a636f6e7374727563746f7228292e204578697420636c61757365207061796f7574206d7573742062652067726561746572207468616e20302e696e2046756e646572457363726f773a636f6e7374727563746f7228292e2053616c65732067616c6c6572792061646472657373206973207a65726f20616464726573732e696e2046756e646572457363726f773a636f6e7374727563746f7228292e20616464726573734e46542063616e6e6f742062652061646472657373283029696e2046756e646572457363726f773a636f6e7374727563746f7228292e2045787069726174696f6e2074696d657374616d7020697320696e2074686520706173742e696e2046756e646572457363726f773a636f6e7374727563746f7228292e2053616c657320636f6d6d697373696f6e2061646472657373206973207a65726f20616464726573732e696e2046756e646572457363726f773a636f6e7374727563746f7228292e204d6178206e756d626572206f66207072696e7473206d7573742062652067726561746572207468616e20302e696e2046756e646572457363726f773a636f6e7374727563746f7228292e204578697420636c61757365206164646974696f6e616c207061796d656e74206d7573742062652067726561746572207468616e20302e696e2046756e646572457363726f773a636f6e7374727563746f7228292e2052657475726e204f6e20506c6564676520416d6f756e742055706f6e2053616c65206d7573742062652067726561746572207468616e20302e696e2046756e646572457363726f773a636f6e7374727563746f7228292e2042656e65666963696172792061646472657373206973207a65726f20616464726573732e696e2046756e646572457363726f773a636f6e7374727563746f7228292e20506c6564676520616d6f756e74206d7573742062652067726561746572207468616e20302e696e2046756e646572457363726f773a636f6e7374727563746f7228292e2052657475726e2066726f6d2073616c652070726f6365656473206d7573742062652067726561746572207468616e20302e696e2046756e646572457363726f773a636f6e7374727563746f7228292e206164647265737346542063616e6e6f742062652061646472657373283029696e2046756e646572457363726f773a636f6e7374727563746f7228292e2047616c6c65727920666565206d7573742062652067726561746572207468616e20302e",
  "source": "/**\n* Create by Balaji on 08/16/2019\n*/\npragma solidity 0.5.2;\n\nimport \"./ERC20/AssetToken.sol\";\nimport \"./ERC721/ArtToken.sol\";\nimport \"openzeppelin-solidity/contracts/ownership/Ownable.sol\";\nimport \"./IFunderEscrow.sol\";\nimport \"./FunderEscrowDetailed.sol\";\nimport \"openzeppelin-solidity/contracts/token/ERC721/ERC721Holder.sol\";\n/**\n* @author Balaji Pachai\n* @title FunderEscrow\n* @dev Contract that holds the details of all the funders\n*/\n\ncontract FunderEscrow is Ownable, IFunderEscrow, FunderEscrowDetailed, ERC721Holder {\n    using SafeMath for uint256;\n    AssetToken public ASSET_TOKEN;\n    ArtToken public ART_TOKEN;\n\n    event FunderLinked(address indexed oldOwner, address indexed newOwner, uint timestamp);\n    event PrintFunded(address indexed funder, uint indexed amount, uint timestamp);\n\n    modifier hasContractExpired() {\n        require(\n            block.timestamp < EXPIRATION_TIMESTAMP,\n                \"in FunderEscrow:hasContractExpired(). The contract has not expired\"\n        );\n        _;\n    }\n\n    /**\n    * @dev Constructor\n    */\n    constructor(\n        address payable _beneficiary,\n        uint256 _pledgeAmount, uint256 _investorReturnOnPledgeAmountUponSale,\n        uint256 _galleryFeeUponSale, uint256 _commission, uint256 _maxNumberOfPrints,\n        uint256 _exitClauseAddPayment, uint256 _exitClausePayoutFromAel, uint256 _expTimestamp,\n        address _commissioningGalleryAddr, address _salesCommissionAddr, address _sellingGalleryAddr,\n        address addressNFT, address addressFT\n    )\n    public\n    FunderEscrowDetailed(_beneficiary,_pledgeAmount, _investorReturnOnPledgeAmountUponSale, _galleryFeeUponSale,\n        _commission, _maxNumberOfPrints, _exitClauseAddPayment, _exitClausePayoutFromAel, _expTimestamp,\n        _commissioningGalleryAddr, _salesCommissionAddr, _sellingGalleryAddr\n    )\n    {\n        require(addressNFT != address(0), \"in FunderEscrow:constructor(). addressNFT cannot be address(0)\");\n        require(addressFT != address(0), \"in FunderEscrow:constructor(). addressFT cannot be address(0)\");\n\n        ART_TOKEN = ArtToken(addressNFT);\n        ASSET_TOKEN = AssetToken(addressFT);\n    }\n\n    // TODO @balaji Pass in ERC20 to the beneficiary to beneficairy as soon as funding takes place // DONE Line No: 127\n    // TODO @blaji token minted, approval given to FUnder , then funder will pull in the token into itself\n    // (link) //DONE Line No: 61-64\n    //TODO @balaji the money should go to the Beneficiary, the beneficiary has the right to remove the fundings\n\n    /**\n    * @dev Linking ERC721 with the FunderEscrow\n    */\n    function link(address _owner, uint256 _tokenId) public {\n        ART_TOKEN.safeTransferFrom(_owner, address(this), _tokenId);\n        assert(ART_TOKEN.ownerOf(_tokenId) == address(this)); // Code coverage else path cannot be covered, Why? Have a look at CoverageReportReadme.md in the root dir\n        emit FunderLinked(_owner, address(this), now);\n    }\n    //The ERC721 will be owned by FUnderEscrow\n    // After the funding period ends erc721 is transferred to beneficiary\n    /**\n    * @dev Mapping the ERC721 Token with the funder's account address\n    * @param _numberOfPrints Total number of prints\n    */\n    function processFundingRequest(uint256 _numberOfPrints) public {\n        require(\n            funderIndex < MAX_NUMBER_OF_PRINTS,\n            \"in FunderEscrow:processFundingRequest(). All prints have been funded.\"\n        );\n        uint256 noOfPrintsPlusFunderIndex = _numberOfPrints.add(funderIndex);\n        if(noOfPrintsPlusFunderIndex > MAX_NUMBER_OF_PRINTS) {\n            _numberOfPrints = MAX_NUMBER_OF_PRINTS.sub(funderIndex);\n        }\n        for(uint256 i = 0; i < _numberOfPrints; i++) {\n            require(\n                fundPrints(msg.sender, PLEDGE_AMOUNT),\n                \"in FunderEscrow:processFundingRequest(). Error while receiving the pledge amount.\"\n            );\n        }\n    }\n\n    /**\n    * @dev Function that approves other addresses to spend the ERC721 owned by FunderEscrow\n    * @param _tokenId The ERC721 token's ID.\n    * @param _addressToBeApproved The address which will spend the ERC721 token on behalf of the owner\n    */\n    function approveToSpendERC721(address _addressToBeApproved, uint256 _tokenId) onlyOwner public {\n        ART_TOKEN.approve(_addressToBeApproved, _tokenId);\n    }\n\n    /**\n    * @dev On sale of Print, ensures, repayment occurs in FIFO manner\n    * @param _soldBy Boolean indicating whether the print was sold by AEL or Third Party\n    */\n    // TODO @balaji make it external, and also a modifier that checks the signature of SalesContract\n    function onSpecificPerformance(bool _soldBy) external {\n        address _funder = FIFOFunder[printSoldIndex];\n        // Pay to the _beneficiary\n        payout(_funder, _soldBy);\n        // Increase the funderIndex s.t. on next sale, funder at the next index gets the sale amount\n        printSoldIndex = printSoldIndex.add(1);\n    }\n\n    /**\n    * @dev Function that gets the locked in tokens in case if the tokens are locked in the smart contract\n    * @param _receiver Address that receives the locked in tokens into this contract\n    */\n    function getLockedTokens(address _receiver) onlyOwner public {\n        uint256 contractBalance = ASSET_TOKEN.balanceOf(address(this));\n        require(\n            transferTokens(_receiver, contractBalance),\n                \"in FunderEscrow:getLockedTokens().Trasfer failed.\"\n        ); // Code coverage else path cannot be covered, Why? Have a look at CoverageReportReadme.md in the root dir\n    }\n\n    /**\n    * @dev Transfers exit clause payouts to the funders in case the contract has expired\n    */\n    function transferExitClausePayout() onlyOwner hasContractExpired public {\n        address funder;\n        for(uint256 i = printSoldIndex; i < funderIndex; i++) {\n            funder = FIFOFunder[i];\n            printSoldIndex = printSoldIndex.add(1);\n            require(\n                transferTokens(funder, EXIT_CLAUSE_PAYOUT_FROM_AEL),\n                    \"in FunderEscrow:trasferExitClausePayout().Trasfer failed.\"\n            );\n            hasFunderBeenPaid[FIFOFunder[i]] = true;\n        }\n    }\n\n    /**\n    * @dev Exit clause additional payment to buy\n    * @param _buyer The address to whom the ERC721 has to transferred\n    */\n    //TODO: @baljai informs Chaitanya why the onlyOwner tag was removed? and why this function was made external\n    function\n    exitClauseAdditionalPaymentToBuy(address _buyer, uint256 _printId)\n    hasContractExpired\n    external returns (bool)\n    {\n        printSoldIndex = printSoldIndex.add(1);\n        require(\n            transferTokensFrom(\n                _buyer, AEL_GALLERY_ADDRESS, EXIT_CLAUSE_ADDITIONAL_PAYMENT_TO_BUY\n            ),\n                \"in FunderEscrow:exitClauseAdditionalPaymentToBuy().Trasfer from failed.\"\n        );\n        return true;\n    }\n\n    /**\n   * @dev Gets tokens from the funder into this contract\n   * @param _funder The funders account address\n   * @param _pledgeAmount The amount pledged by the funder for the Print(ERC721 Token)\n   */\n    function fundPrints(address _funder, uint256 _pledgeAmount) public returns (bool) {\n        // Transfers the pledgeAmount to the beneficiary\n        address beneficiary = beneficiary();\n        require(\n            transferTokensFrom(_funder, beneficiary, _pledgeAmount),\n            \"in FunderEscrow:fundPrints().Trasfer failed from funder to beneficiary.\"\n        );\n        FIFOFunder[funderIndex] = _funder;\n        funderIndex = funderIndex.add(1);\n        emit PrintFunded(_funder, _pledgeAmount, now);\n        return true;\n    }\n\n    /**\n    * @dev Function that proceeds with the payouts\n    * @param _funder The funders account address\n    * @param _soldBy Boolean indicating whether the print was sold by AEL or Third Party\n    */\n    function payout(address _funder, bool _soldBy) internal {\n        // Pull in the tokens into the FunderEscrow\n        // transferTokensFrom(msg.sender, address(this), PLEDGE_AMOUNT);\n        // _soldBy == 1 implies AEL else John Kempner\n        // Code coverage else path cannot be covered, Why? Have a look at CoverageReportReadme.md in the root dir\n        if(_soldBy) {\n            require(\n                transferTokens(AEL_GALLERY_ADDRESS, GALLERY_FEE_UPON_SALE),\n                    \"in FunderEscrow:payout().Trasfer failed for gallery.\"\n            );\n            require(\n                transferTokens(AEL_COMMISSION_ADDRESS, AEL_COMMISSION),\n                    \"in FunderEscrow:payout().Trasfer failed for commission.\"\n            );\n            require(\n                transferTokens(_funder, INVESTOR_RETURN_ON_PLEDGE_AMOUNT_UPON_SALE),\n                    \"in FunderEscrow:payout().Trasfer failed for funder.\"\n            );\n            hasFunderBeenPaid[_funder] = true;\n        } else {\n            require(\n                transferTokens(THIRD_PARTY_GALLERY_ADDRESS, GALLERY_FEE_UPON_SALE),\n                    \"in FunderEscrow:payout().Trasfer failed for third party gallery.\"\n            );\n            require(\n                transferTokens(AEL_COMMISSION_ADDRESS, AEL_COMMISSION),\n                    \"in FunderEscrow:payout().Trasfer failed for commission for third party gallery.\"\n            );\n            require(\n                transferTokens(_funder, INVESTOR_RETURN_ON_PLEDGE_AMOUNT_UPON_SALE),\n                    \"in FunderEscrow:payout().Trasfer failed for funder for third party gallery.\"\n            );\n            hasFunderBeenPaid[_funder] = true;\n        }\n    }\n\n    /**\n    * @dev Function that transfers the tokens.\n    * @param _receiver The receiver's address.\n    * @param _amount The amount to transfer.\n    */\n    function transferTokens(address _receiver, uint256 _amount) internal returns (bool) {\n        return ASSET_TOKEN.transfer(_receiver, _amount);\n    }\n\n    /**\n    * @param _from The address from whom the tokens have to be pulled in.\n    * @param _to The address that will spend the tokens on behalf of the _sender.\n    * @param _amount The amount of tokens to be pulled in.\n    */\n    function transferTokensFrom(address _from, address _to, uint256 _amount) internal returns (bool) {\n        return ASSET_TOKEN.transferFrom(_from, _to, _amount);\n    }\n\n}\n",
  "sourcePath": "/home/node/app/contracts/FunderEscrow.sol",
  "compiler": {
    "name": "solc",
    "version": "0.5.2+commit.1df8f40c.Emscripten.clang"
  },
  "schemaVersion": "3.0.19",
  "updatedAt": "2019-12-04T10:41:17.164Z",
  "networkType": "ethereum",
  "devdoc": {
    "author": "Balaji Pachai",
    "details": "Contract that holds the details of all the funders",
    "methods": {
      "approveToSpendERC721(address,uint256)": {
        "details": "Function that approves other addresses to spend the ERC721 owned by FunderEscrow",
        "params": {
          "_addressToBeApproved": "The address which will spend the ERC721 token on behalf of the owner",
          "_tokenId": "The ERC721 token's ID."
        }
      },
      "beneficiary()": {
        "return": "the beneficiary of the escrow."
      },
      "beneficiaryWithdraw()": {
        "details": "Withdraws the beneficiary's funds."
      },
      "close()": {
        "details": "Allows for the beneficiary to withdraw their funds, rejecting further deposits."
      },
      "constructor": {
        "details": "Constructor"
      },
      "deposit(address)": {
        "details": "Stores funds that may later be refunded.",
        "params": {
          "refundee": "The address funds will be sent to if a refund occurs."
        }
      },
      "enableRefunds()": {
        "details": "Allows for refunds to take place, rejecting further deposits."
      },
      "exitClauseAdditionalPaymentToBuy(address,uint256)": {
        "details": "Exit clause additional payment to buy",
        "params": {
          "_buyer": "The address to whom the ERC721 has to transferred"
        }
      },
      "fundPrints(address,uint256)": {
        "details": "Gets tokens from the funder into this contract",
        "params": {
          "_funder": "The funders account address",
          "_pledgeAmount": "The amount pledged by the funder for the Print(ERC721 Token)"
        }
      },
      "getLockedTokens(address)": {
        "details": "Function that gets the locked in tokens in case if the tokens are locked in the smart contract",
        "params": {
          "_receiver": "Address that receives the locked in tokens into this contract"
        }
      },
      "isOwner()": {
        "return": "true if `msg.sender` is the owner of the contract."
      },
      "link(address,uint256)": {
        "details": "Linking ERC721 with the FunderEscrow"
      },
      "onSpecificPerformance(bool)": {
        "details": "On sale of Print, ensures, repayment occurs in FIFO manner",
        "params": {
          "_soldBy": "Boolean indicating whether the print was sold by AEL or Third Party"
        }
      },
      "owner()": {
        "return": "the address of the owner."
      },
      "primary()": {
        "return": "the address of the primary."
      },
      "processFundingRequest(uint256)": {
        "details": "Mapping the ERC721 Token with the funder's account address",
        "params": {
          "_numberOfPrints": "Total number of prints"
        }
      },
      "renounceOwnership()": {
        "details": "Allows the current owner to relinquish control of the contract. It will not be possible to call the functions with the `onlyOwner` modifier anymore."
      },
      "state()": {
        "return": "the current state of the escrow."
      },
      "transferExitClausePayout()": {
        "details": "Transfers exit clause payouts to the funders in case the contract has expired"
      },
      "transferOwnership(address)": {
        "details": "Allows the current owner to transfer control of the contract to a newOwner.",
        "params": {
          "newOwner": "The address to transfer ownership to."
        }
      },
      "transferPrimary(address)": {
        "details": "Transfers contract to a new primary.",
        "params": {
          "recipient": "The address of new primary."
        }
      },
      "withdrawalAllowed(address)": {
        "details": "Returns whether refundees can withdraw their deposits (be refunded). The overridden function receives a 'payee' argument, but we ignore it here since the condition is global, not per-payee."
      }
    },
    "title": "FunderEscrow"
  },
  "userdoc": {
    "methods": {
      "renounceOwnership()": {
        "notice": "Renouncing ownership will leave the contract without an owner, thereby removing any functionality that is only available to the owner."
      }
    }
  }
}