{
  "contractName": "FunderEscrowDetailed",
  "abi": [
    {
      "constant": true,
      "inputs": [],
      "name": "EXPIRATION_TIMESTAMP",
      "outputs": [
        {
          "name": "",
          "type": "uint256"
        }
      ],
      "payable": false,
      "stateMutability": "view",
      "type": "function"
    },
    {
      "constant": true,
      "inputs": [
        {
          "name": "",
          "type": "uint256"
        }
      ],
      "name": "FIFOFunder",
      "outputs": [
        {
          "name": "",
          "type": "address"
        }
      ],
      "payable": false,
      "stateMutability": "view",
      "type": "function"
    },
    {
      "constant": false,
      "inputs": [
        {
          "name": "recipient",
          "type": "address"
        }
      ],
      "name": "transferPrimary",
      "outputs": [],
      "payable": false,
      "stateMutability": "nonpayable",
      "type": "function"
    },
    {
      "constant": true,
      "inputs": [],
      "name": "EXIT_CLAUSE_ADDITIONAL_PAYMENT_TO_BUY",
      "outputs": [
        {
          "name": "",
          "type": "uint256"
        }
      ],
      "payable": false,
      "stateMutability": "view",
      "type": "function"
    },
    {
      "constant": true,
      "inputs": [],
      "name": "beneficiary",
      "outputs": [
        {
          "name": "",
          "type": "address"
        }
      ],
      "payable": false,
      "stateMutability": "view",
      "type": "function"
    },
    {
      "constant": false,
      "inputs": [],
      "name": "close",
      "outputs": [],
      "payable": false,
      "stateMutability": "nonpayable",
      "type": "function"
    },
    {
      "constant": false,
      "inputs": [
        {
          "name": "payee",
          "type": "address"
        }
      ],
      "name": "withdraw",
      "outputs": [],
      "payable": false,
      "stateMutability": "nonpayable",
      "type": "function"
    },
    {
      "constant": true,
      "inputs": [],
      "name": "AEL_COMMISSION",
      "outputs": [
        {
          "name": "",
          "type": "uint256"
        }
      ],
      "payable": false,
      "stateMutability": "view",
      "type": "function"
    },
    {
      "constant": true,
      "inputs": [
        {
          "name": "",
          "type": "address"
        }
      ],
      "name": "withdrawalAllowed",
      "outputs": [
        {
          "name": "",
          "type": "bool"
        }
      ],
      "payable": false,
      "stateMutability": "view",
      "type": "function"
    },
    {
      "constant": true,
      "inputs": [],
      "name": "THIRD_PARTY_GALLERY_ADDRESS",
      "outputs": [
        {
          "name": "",
          "type": "address"
        }
      ],
      "payable": false,
      "stateMutability": "view",
      "type": "function"
    },
    {
      "constant": true,
      "inputs": [],
      "name": "EXIT_CLAUSE_PAYOUT_FROM_AEL",
      "outputs": [
        {
          "name": "",
          "type": "uint256"
        }
      ],
      "payable": false,
      "stateMutability": "view",
      "type": "function"
    },
    {
      "constant": true,
      "inputs": [],
      "name": "AEL_COMMISSION_ADDRESS",
      "outputs": [
        {
          "name": "",
          "type": "address"
        }
      ],
      "payable": false,
      "stateMutability": "view",
      "type": "function"
    },
    {
      "constant": false,
      "inputs": [],
      "name": "enableRefunds",
      "outputs": [],
      "payable": false,
      "stateMutability": "nonpayable",
      "type": "function"
    },
    {
      "constant": true,
      "inputs": [],
      "name": "AEL_GALLERY_ADDRESS",
      "outputs": [
        {
          "name": "",
          "type": "address"
        }
      ],
      "payable": false,
      "stateMutability": "view",
      "type": "function"
    },
    {
      "constant": false,
      "inputs": [],
      "name": "beneficiaryWithdraw",
      "outputs": [],
      "payable": false,
      "stateMutability": "nonpayable",
      "type": "function"
    },
    {
      "constant": true,
      "inputs": [],
      "name": "state",
      "outputs": [
        {
          "name": "",
          "type": "uint8"
        }
      ],
      "payable": false,
      "stateMutability": "view",
      "type": "function"
    },
    {
      "constant": true,
      "inputs": [],
      "name": "AEL_FUNDING_ADDRESS",
      "outputs": [
        {
          "name": "",
          "type": "address"
        }
      ],
      "payable": false,
      "stateMutability": "view",
      "type": "function"
    },
    {
      "constant": true,
      "inputs": [],
      "name": "primary",
      "outputs": [
        {
          "name": "",
          "type": "address"
        }
      ],
      "payable": false,
      "stateMutability": "view",
      "type": "function"
    },
    {
      "constant": true,
      "inputs": [],
      "name": "PLEDGE_AMOUNT",
      "outputs": [
        {
          "name": "",
          "type": "uint256"
        }
      ],
      "payable": false,
      "stateMutability": "view",
      "type": "function"
    },
    {
      "constant": true,
      "inputs": [],
      "name": "printSoldIndex",
      "outputs": [
        {
          "name": "",
          "type": "uint256"
        }
      ],
      "payable": false,
      "stateMutability": "view",
      "type": "function"
    },
    {
      "constant": true,
      "inputs": [
        {
          "name": "payee",
          "type": "address"
        }
      ],
      "name": "depositsOf",
      "outputs": [
        {
          "name": "",
          "type": "uint256"
        }
      ],
      "payable": false,
      "stateMutability": "view",
      "type": "function"
    },
    {
      "constant": true,
      "inputs": [],
      "name": "MAX_NUMBER_OF_PRINTS",
      "outputs": [
        {
          "name": "",
          "type": "uint256"
        }
      ],
      "payable": false,
      "stateMutability": "view",
      "type": "function"
    },
    {
      "constant": true,
      "inputs": [],
      "name": "GALLERY_FEE_UPON_SALE",
      "outputs": [
        {
          "name": "",
          "type": "uint256"
        }
      ],
      "payable": false,
      "stateMutability": "view",
      "type": "function"
    },
    {
      "constant": true,
      "inputs": [],
      "name": "INVESTOR_RETURN_ON_PLEDGE_AMOUNT_UPON_SALE",
      "outputs": [
        {
          "name": "",
          "type": "uint256"
        }
      ],
      "payable": false,
      "stateMutability": "view",
      "type": "function"
    },
    {
      "constant": true,
      "inputs": [
        {
          "name": "",
          "type": "address"
        }
      ],
      "name": "hasFunderBeenPaid",
      "outputs": [
        {
          "name": "",
          "type": "bool"
        }
      ],
      "payable": false,
      "stateMutability": "view",
      "type": "function"
    },
    {
      "constant": true,
      "inputs": [],
      "name": "funderIndex",
      "outputs": [
        {
          "name": "",
          "type": "uint256"
        }
      ],
      "payable": false,
      "stateMutability": "view",
      "type": "function"
    },
    {
      "constant": false,
      "inputs": [
        {
          "name": "refundee",
          "type": "address"
        }
      ],
      "name": "deposit",
      "outputs": [],
      "payable": true,
      "stateMutability": "payable",
      "type": "function"
    },
    {
      "inputs": [
        {
          "name": "_beneficiary",
          "type": "address"
        },
        {
          "name": "_pledgeAmount",
          "type": "uint256"
        },
        {
          "name": "_investorReturnOnPledgeAmountUponSale",
          "type": "uint256"
        },
        {
          "name": "_galleryFeeUponSale",
          "type": "uint256"
        },
        {
          "name": "_commission",
          "type": "uint256"
        },
        {
          "name": "_maxNumberOfPrints",
          "type": "uint256"
        },
        {
          "name": "_exitClauseAddPayment",
          "type": "uint256"
        },
        {
          "name": "_exitClausePayoutFromAel",
          "type": "uint256"
        },
        {
          "name": "_expTimestamp",
          "type": "uint256"
        },
        {
          "name": "_commissioningGalleryAddr",
          "type": "address"
        },
        {
          "name": "_salesCommissionAddr",
          "type": "address"
        },
        {
          "name": "_sellingGalleryAddr",
          "type": "address"
        }
      ],
      "payable": false,
      "stateMutability": "nonpayable",
      "type": "constructor"
    },
    {
      "anonymous": false,
      "inputs": [],
      "name": "RefundsClosed",
      "type": "event"
    },
    {
      "anonymous": false,
      "inputs": [],
      "name": "RefundsEnabled",
      "type": "event"
    },
    {
      "anonymous": false,
      "inputs": [
        {
          "indexed": true,
          "name": "payee",
          "type": "address"
        },
        {
          "indexed": false,
          "name": "weiAmount",
          "type": "uint256"
        }
      ],
      "name": "Deposited",
      "type": "event"
    },
    {
      "anonymous": false,
      "inputs": [
        {
          "indexed": true,
          "name": "payee",
          "type": "address"
        },
        {
          "indexed": false,
          "name": "weiAmount",
          "type": "uint256"
        }
      ],
      "name": "Withdrawn",
      "type": "event"
    },
    {
      "anonymous": false,
      "inputs": [
        {
          "indexed": false,
          "name": "recipient",
          "type": "address"
        }
      ],
      "name": "PrimaryTransferred",
      "type": "event"
    }
  ],
  "bytecode": "0x60806040523480156200001157600080fd5b506040516101808062001dca83398101806040526101808110156200003557600080fd5b810190808051906020019092919080519060200190929190805190602001909291908051906020019092919080519060200190929190805190602001909291908051906020019092919080519060200190929190805190602001909291908051906020019092919080519060200190929190805190602001909291905050508b336000806101000a81548173ffffffffffffffffffffffffffffffffffffffff021916908373ffffffffffffffffffffffffffffffffffffffff1602179055507f4101e71e974f68df5e9730cc223280b41654676bbb052cdcc735c3337e64d2d96000809054906101000a900473ffffffffffffffffffffffffffffffffffffffff16604051808273ffffffffffffffffffffffffffffffffffffffff1673ffffffffffffffffffffffffffffffffffffffff16815260200191505060405180910390a1600073ffffffffffffffffffffffffffffffffffffffff168173ffffffffffffffffffffffffffffffffffffffff1614151515620001b657600080fd5b80600260016101000a81548173ffffffffffffffffffffffffffffffffffffffff021916908373ffffffffffffffffffffffffffffffffffffffff1602179055506000600260006101000a81548160ff021916908360028111156200021757fe5b02179055505060008b1115156200027a576040517f08c379a000000000000000000000000000000000000000000000000000000000815260040180806020018281038252604481526020018062001cf46044913960600191505060405180910390fd5b60008a111515620002d7576040517f08c379a000000000000000000000000000000000000000000000000000000000815260040180806020018281038252605881526020018062001c596058913960600191505060405180910390fd5b60008911151562000334576040517f08c379a000000000000000000000000000000000000000000000000000000000815260040180806020018281038252604281526020018062001d886042913960600191505060405180910390fd5b60008811151562000391576040517f08c379a000000000000000000000000000000000000000000000000000000000815260040180806020018281038252605081526020018062001d386050913960600191505060405180910390fd5b600087111515620003ee576040517f08c379a000000000000000000000000000000000000000000000000000000000815260040180806020018281038252604b81526020018062001bb9604b913960600191505060405180910390fd5b6000861115156200044b576040517f08c379a000000000000000000000000000000000000000000000000000000000815260040180806020018281038252605581526020018062001c046055913960600191505060405180910390fd5b600085111515620004a8576040517f08c379a000000000000000000000000000000000000000000000000000000000815260040180806020018281038252604981526020018062001aa06049913960600191505060405180910390fd5b428411151562000504576040517f08c379a000000000000000000000000000000000000000000000000000000000815260040180806020018281038252604381526020018062001b2e6043913960600191505060405180910390fd5b600073ffffffffffffffffffffffffffffffffffffffff168373ffffffffffffffffffffffffffffffffffffffff16141515156200058e576040517f08c379a000000000000000000000000000000000000000000000000000000000815260040180806020018281038252603f81526020018062001a61603f913960400191505060405180910390fd5b600073ffffffffffffffffffffffffffffffffffffffff168273ffffffffffffffffffffffffffffffffffffffff161415151562000618576040517f08c379a000000000000000000000000000000000000000000000000000000000815260040180806020018281038252604881526020018062001b716048913960600191505060405180910390fd5b600073ffffffffffffffffffffffffffffffffffffffff168173ffffffffffffffffffffffffffffffffffffffff1614151515620006a2576040517f08c379a000000000000000000000000000000000000000000000000000000000815260040180806020018281038252604581526020018062001ae96045913960600191505060405180910390fd5b600073ffffffffffffffffffffffffffffffffffffffff168c73ffffffffffffffffffffffffffffffffffffffff16141515156200072c576040517f08c379a000000000000000000000000000000000000000000000000000000000815260040180806020018281038252604381526020018062001cb16043913960600191505060405180910390fd5b8a60038190555089600481905550886005819055508760068190555086600781905550856008819055508460098190555083600a8190555082600b60006101000a81548173ffffffffffffffffffffffffffffffffffffffff021916908373ffffffffffffffffffffffffffffffffffffffff16021790555082600d60006101000a81548173ffffffffffffffffffffffffffffffffffffffff021916908373ffffffffffffffffffffffffffffffffffffffff16021790555081600c60006101000a81548173ffffffffffffffffffffffffffffffffffffffff021916908373ffffffffffffffffffffffffffffffffffffffff16021790555080600e60006101000a81548173ffffffffffffffffffffffffffffffffffffffff021916908373ffffffffffffffffffffffffffffffffffffffff1602179055505050505050505050505050506111dd80620008846000396000f3fe6080604052600436106101b9576000357c0100000000000000000000000000000000000000000000000000000000900480638ec8ae6811610109578063e3a9db1a116100a7578063ee4bbce411610081578063ee4bbce414610789578063f04afc6c146107b4578063f076ca5e1461081d578063f340fa0114610848576101b9565b8063e3a9db1a146106ce578063e3e0054a14610733578063ebb5b8321461075e576101b9565b8063c4405967116100e3578063c4405967146105ca578063c6dbdf6114610621578063dcb6150a14610678578063e0980f73146106a3576101b9565b80638ec8ae68146105235780639af6549a1461057a578063c19d93fb14610591576101b9565b806351cff8d9116101765780636a83d4f0116101505780636a83d4f0146104335780636e29b7cc1461048a5780638939ba49146104b55780638c52dc411461050c576101b9565b806351cff8d91461034e57806361ebc8751461039f578063685ca194146103ca576101b9565b806308d6323d146101be578063165c61df146101e95780632348238c146102645780632c7dd21e146102b557806338af3eed146102e057806343d726d614610337575b600080fd5b3480156101ca57600080fd5b506101d361088c565b6040518082815260200191505060405180910390f35b3480156101f557600080fd5b506102226004803603602081101561020c57600080fd5b8101908080359060200190929190505050610892565b604051808273ffffffffffffffffffffffffffffffffffffffff1673ffffffffffffffffffffffffffffffffffffffff16815260200191505060405180910390f35b34801561027057600080fd5b506102b36004803603602081101561028757600080fd5b81019080803573ffffffffffffffffffffffffffffffffffffffff1690602001909291905050506108c5565b005b3480156102c157600080fd5b506102ca610a23565b6040518082815260200191505060405180910390f35b3480156102ec57600080fd5b506102f5610a29565b604051808273ffffffffffffffffffffffffffffffffffffffff1673ffffffffffffffffffffffffffffffffffffffff16815260200191505060405180910390f35b34801561034357600080fd5b5061034c610a53565b005b34801561035a57600080fd5b5061039d6004803603602081101561037157600080fd5b81019080803573ffffffffffffffffffffffffffffffffffffffff169060200190929190505050610b33565b005b3480156103ab57600080fd5b506103b4610b53565b6040518082815260200191505060405180910390f35b3480156103d657600080fd5b50610419600480360360208110156103ed57600080fd5b81019080803573ffffffffffffffffffffffffffffffffffffffff169060200190929190505050610b59565b604051808215151515815260200191505060405180910390f35b34801561043f57600080fd5b50610448610b8b565b604051808273ffffffffffffffffffffffffffffffffffffffff1673ffffffffffffffffffffffffffffffffffffffff16815260200191505060405180910390f35b34801561049657600080fd5b5061049f610bb1565b6040518082815260200191505060405180910390f35b3480156104c157600080fd5b506104ca610bb7565b604051808273ffffffffffffffffffffffffffffffffffffffff1673ffffffffffffffffffffffffffffffffffffffff16815260200191505060405180910390f35b34801561051857600080fd5b50610521610bdd565b005b34801561052f57600080fd5b50610538610cbe565b604051808273ffffffffffffffffffffffffffffffffffffffff1673ffffffffffffffffffffffffffffffffffffffff16815260200191505060405180910390f35b34801561058657600080fd5b5061058f610ce4565b005b34801561059d57600080fd5b506105a6610d99565b604051808260028111156105b657fe5b60ff16815260200191505060405180910390f35b3480156105d657600080fd5b506105df610db0565b604051808273ffffffffffffffffffffffffffffffffffffffff1673ffffffffffffffffffffffffffffffffffffffff16815260200191505060405180910390f35b34801561062d57600080fd5b50610636610dd6565b604051808273ffffffffffffffffffffffffffffffffffffffff1673ffffffffffffffffffffffffffffffffffffffff16815260200191505060405180910390f35b34801561068457600080fd5b5061068d610dff565b6040518082815260200191505060405180910390f35b3480156106af57600080fd5b506106b8610e05565b6040518082815260200191505060405180910390f35b3480156106da57600080fd5b5061071d600480360360208110156106f157600080fd5b81019080803573ffffffffffffffffffffffffffffffffffffffff169060200190929190505050610e0b565b6040518082815260200191505060405180910390f35b34801561073f57600080fd5b50610748610e54565b6040518082815260200191505060405180910390f35b34801561076a57600080fd5b50610773610e5a565b6040518082815260200191505060405180910390f35b34801561079557600080fd5b5061079e610e60565b6040518082815260200191505060405180910390f35b3480156107c057600080fd5b50610803600480360360208110156107d757600080fd5b81019080803573ffffffffffffffffffffffffffffffffffffffff169060200190929190505050610e66565b604051808215151515815260200191505060405180910390f35b34801561082957600080fd5b50610832610e86565b6040518082815260200191505060405180910390f35b61088a6004803603602081101561085e57600080fd5b81019080803573ffffffffffffffffffffffffffffffffffffffff169060200190929190505050610e8c565b005b600a5481565b600f6020528060005260406000206000915054906101000a900473ffffffffffffffffffffffffffffffffffffffff1681565b6000809054906101000a900473ffffffffffffffffffffffffffffffffffffffff1673ffffffffffffffffffffffffffffffffffffffff163373ffffffffffffffffffffffffffffffffffffffff1614151561092057600080fd5b600073ffffffffffffffffffffffffffffffffffffffff168173ffffffffffffffffffffffffffffffffffffffff161415151561095c57600080fd5b806000806101000a81548173ffffffffffffffffffffffffffffffffffffffff021916908373ffffffffffffffffffffffffffffffffffffffff1602179055507f4101e71e974f68df5e9730cc223280b41654676bbb052cdcc735c3337e64d2d96000809054906101000a900473ffffffffffffffffffffffffffffffffffffffff16604051808273ffffffffffffffffffffffffffffffffffffffff1673ffffffffffffffffffffffffffffffffffffffff16815260200191505060405180910390a150565b60085481565b6000600260019054906101000a900473ffffffffffffffffffffffffffffffffffffffff16905090565b6000809054906101000a900473ffffffffffffffffffffffffffffffffffffffff1673ffffffffffffffffffffffffffffffffffffffff163373ffffffffffffffffffffffffffffffffffffffff16141515610aae57600080fd5b60006002811115610abb57fe5b600260009054906101000a900460ff166002811115610ad657fe5b141515610ae257600080fd5b60028060006101000a81548160ff02191690836002811115610b0057fe5b02179055507f088672c3a6e342f7cd94a65ba63b79df24a8973927b4d05d803c44bbf787d12f60405160405180910390a1565b610b3c81610b59565b1515610b4757600080fd5b610b5081610ecc565b50565b60065481565b600060016002811115610b6857fe5b600260009054906101000a900460ff166002811115610b8357fe5b149050919050565b600e60009054906101000a900473ffffffffffffffffffffffffffffffffffffffff1681565b60095481565b600c60009054906101000a900473ffffffffffffffffffffffffffffffffffffffff1681565b6000809054906101000a900473ffffffffffffffffffffffffffffffffffffffff1673ffffffffffffffffffffffffffffffffffffffff163373ffffffffffffffffffffffffffffffffffffffff16141515610c3857600080fd5b60006002811115610c4557fe5b600260009054906101000a900460ff166002811115610c6057fe5b141515610c6c57600080fd5b6001600260006101000a81548160ff02191690836002811115610c8b57fe5b02179055507f599d8e5a83cffb867d051598c4d70e805d59802d8081c1c7d6dffc5b6aca2b8960405160405180910390a1565b600b60009054906101000a900473ffffffffffffffffffffffffffffffffffffffff1681565b600280811115610cf057fe5b600260009054906101000a900460ff166002811115610d0b57fe5b141515610d1757600080fd5b600260019054906101000a900473ffffffffffffffffffffffffffffffffffffffff1673ffffffffffffffffffffffffffffffffffffffff166108fc3073ffffffffffffffffffffffffffffffffffffffff16319081150290604051600060405180830381858888f19350505050158015610d96573d6000803e3d6000fd5b50565b6000600260009054906101000a900460ff16905090565b600d60009054906101000a900473ffffffffffffffffffffffffffffffffffffffff1681565b60008060009054906101000a900473ffffffffffffffffffffffffffffffffffffffff16905090565b60035481565b60125481565b6000600160008373ffffffffffffffffffffffffffffffffffffffff1673ffffffffffffffffffffffffffffffffffffffff168152602001908152602001600020549050919050565b60075481565b60055481565b60045481565b60106020528060005260406000206000915054906101000a900460ff1681565b60115481565b60006002811115610e9957fe5b600260009054906101000a900460ff166002811115610eb457fe5b141515610ec057600080fd5b610ec981611049565b50565b6000809054906101000a900473ffffffffffffffffffffffffffffffffffffffff1673ffffffffffffffffffffffffffffffffffffffff163373ffffffffffffffffffffffffffffffffffffffff16141515610f2757600080fd5b6000600160008373ffffffffffffffffffffffffffffffffffffffff1673ffffffffffffffffffffffffffffffffffffffff1681526020019081526020016000205490506000600160008473ffffffffffffffffffffffffffffffffffffffff1673ffffffffffffffffffffffffffffffffffffffff168152602001908152602001600020819055508173ffffffffffffffffffffffffffffffffffffffff166108fc829081150290604051600060405180830381858888f19350505050158015610ff6573d6000803e3d6000fd5b508173ffffffffffffffffffffffffffffffffffffffff167f7084f5476618d8e60b11ef0d7d3f06914655adb8793e28ff7f018d4c76d505d5826040518082815260200191505060405180910390a25050565b6000809054906101000a900473ffffffffffffffffffffffffffffffffffffffff1673ffffffffffffffffffffffffffffffffffffffff163373ffffffffffffffffffffffffffffffffffffffff161415156110a457600080fd5b60003490506110fb81600160008573ffffffffffffffffffffffffffffffffffffffff1673ffffffffffffffffffffffffffffffffffffffff1681526020019081526020016000205461119090919063ffffffff16565b600160008473ffffffffffffffffffffffffffffffffffffffff1673ffffffffffffffffffffffffffffffffffffffff168152602001908152602001600020819055508173ffffffffffffffffffffffffffffffffffffffff167f2da466a7b24304f47e87fa2e1e5a81b9831ce54fec19055ce277ca2f39ba42c4826040518082815260200191505060405180910390a25050565b60008082840190508381101515156111a757600080fd5b809150509291505056fea165627a7a72305820c4a2c6a19acab45c242bb317cde6f325d56eb803b781079e4f7428fe641da93d0029696e2046756e646572457363726f773a636f6e7374727563746f7228292e2047616c6c6572792061646472657373206973207a65726f20616464726573732e696e2046756e646572457363726f773a636f6e7374727563746f7228292e204578697420636c61757365207061796f7574206d7573742062652067726561746572207468616e20302e696e2046756e646572457363726f773a636f6e7374727563746f7228292e2053616c65732067616c6c6572792061646472657373206973207a65726f20616464726573732e696e2046756e646572457363726f773a636f6e7374727563746f7228292e2045787069726174696f6e2074696d657374616d7020697320696e2074686520706173742e696e2046756e646572457363726f773a636f6e7374727563746f7228292e2053616c657320636f6d6d697373696f6e2061646472657373206973207a65726f20616464726573732e696e2046756e646572457363726f773a636f6e7374727563746f7228292e204d6178206e756d626572206f66207072696e7473206d7573742062652067726561746572207468616e20302e696e2046756e646572457363726f773a636f6e7374727563746f7228292e204578697420636c61757365206164646974696f6e616c207061796d656e74206d7573742062652067726561746572207468616e20302e696e2046756e646572457363726f773a636f6e7374727563746f7228292e2052657475726e204f6e20506c6564676520416d6f756e742055706f6e2053616c65206d7573742062652067726561746572207468616e20302e696e2046756e646572457363726f773a636f6e7374727563746f7228292e2042656e65666963696172792061646472657373206973207a65726f20616464726573732e696e2046756e646572457363726f773a636f6e7374727563746f7228292e20506c6564676520616d6f756e74206d7573742062652067726561746572207468616e20302e696e2046756e646572457363726f773a636f6e7374727563746f7228292e2052657475726e2066726f6d2073616c652070726f6365656473206d7573742062652067726561746572207468616e20302e696e2046756e646572457363726f773a636f6e7374727563746f7228292e2047616c6c65727920666565206d7573742062652067726561746572207468616e20302e",
  "source": "/**\n* Create by Balaji on 09/17/2019\n*/\npragma solidity 0.5.2;\n\nimport \"openzeppelin-solidity/contracts/payment/escrow/RefundEscrow.sol\";\n\ncontract FunderEscrowDetailed is RefundEscrow {\n    uint256 public PLEDGE_AMOUNT;\n    uint256 public INVESTOR_RETURN_ON_PLEDGE_AMOUNT_UPON_SALE;\n    uint256 public GALLERY_FEE_UPON_SALE;\n    uint256 public AEL_COMMISSION;\n    uint256 public MAX_NUMBER_OF_PRINTS;\n    uint256 public EXIT_CLAUSE_ADDITIONAL_PAYMENT_TO_BUY;\n    uint256 public EXIT_CLAUSE_PAYOUT_FROM_AEL;\n    uint256 public EXPIRATION_TIMESTAMP;\n\n    address public AEL_GALLERY_ADDRESS;\n    address public AEL_COMMISSION_ADDRESS;\n    address public AEL_FUNDING_ADDRESS;\n\n    address public THIRD_PARTY_GALLERY_ADDRESS;\n\n    mapping(uint256 => address) public FIFOFunder;\n    mapping(address => bool) public hasFunderBeenPaid;\n\n    uint256 public funderIndex;\n    uint256 public printSoldIndex;\n\n    /**\n   * @dev Constructor\n   */\n    constructor(\n        address payable _beneficiary, uint256 _pledgeAmount, uint256 _investorReturnOnPledgeAmountUponSale,\n        uint256 _galleryFeeUponSale, uint256 _commission, uint256 _maxNumberOfPrints,\n        uint256 _exitClauseAddPayment, uint256 _exitClausePayoutFromAel, uint256 _expTimestamp,\n        address _commissioningGalleryAddr, address _salesCommissionAddr, address _sellingGalleryAddr\n    )\n    public\n    RefundEscrow(_beneficiary)\n    {\n        require(_pledgeAmount > 0, \"in FunderEscrow:constructor(). Pledge amount must be greater than 0.\");\n        require(\n            _investorReturnOnPledgeAmountUponSale > 0,\n            \"in FunderEscrow:constructor(). Return On Pledge Amount Upon Sale must be greater than 0.\"\n        );\n        require(_galleryFeeUponSale > 0, \"in FunderEscrow:constructor(). Gallery fee must be greater than 0.\");\n        require(_commission > 0,\n            \"in FunderEscrow:constructor(). Return from sale proceeds must be greater than 0.\"\n        );\n        require(\n            _maxNumberOfPrints > 0, \"in FunderEscrow:constructor(). Max number of prints must be greater than 0.\"\n        );\n        require(_exitClauseAddPayment > 0,\n            \"in FunderEscrow:constructor(). Exit clause additional payment must be greater than 0.\"\n        );\n        require(_exitClausePayoutFromAel > 0,\n            \"in FunderEscrow:constructor(). Exit clause payout must be greater than 0.\"\n        );\n        require(_expTimestamp > block.timestamp,\n            \"in FunderEscrow:constructor(). Expiration timestamp is in the past.\"\n        );\n\n        require(_commissioningGalleryAddr != address (0),\n            \"in FunderEscrow:constructor(). Gallery address is zero address.\"\n        );\n        require(_salesCommissionAddr != address (0),\n            \"in FunderEscrow:constructor(). Sales commission address is zero address.\"\n        );\n\n        require(_sellingGalleryAddr != address (0),\n            \"in FunderEscrow:constructor(). Sales gallery address is zero address.\"\n        );\n\n        require(_beneficiary != address (0),\n            \"in FunderEscrow:constructor(). Beneficiary address is zero address.\"\n        ); // Code coverage else path cannot be covered, Why? Have a look at CoverageReportReadme.md in the root dir\n\n        PLEDGE_AMOUNT = _pledgeAmount;\n        INVESTOR_RETURN_ON_PLEDGE_AMOUNT_UPON_SALE = _investorReturnOnPledgeAmountUponSale;\n        GALLERY_FEE_UPON_SALE = _galleryFeeUponSale;\n        AEL_COMMISSION = _commission;\n        MAX_NUMBER_OF_PRINTS = _maxNumberOfPrints;\n        EXIT_CLAUSE_ADDITIONAL_PAYMENT_TO_BUY = _exitClauseAddPayment;\n        EXIT_CLAUSE_PAYOUT_FROM_AEL = _exitClausePayoutFromAel;\n        EXPIRATION_TIMESTAMP = _expTimestamp;\n\n        AEL_GALLERY_ADDRESS = _commissioningGalleryAddr;\n        AEL_FUNDING_ADDRESS = _commissioningGalleryAddr;\n        AEL_COMMISSION_ADDRESS = _salesCommissionAddr;\n\n        THIRD_PARTY_GALLERY_ADDRESS = _sellingGalleryAddr;\n    }\n}\n",
  "sourcePath": "/home/node/app/contracts/FunderEscrowDetailed.sol",
  "compiler": {
    "name": "solc",
    "version": "0.5.2+commit.1df8f40c.Emscripten.clang"
  },
  "schemaVersion": "3.0.19",
  "updatedAt": "2019-12-04T05:52:08.432Z",
  "devdoc": {
    "methods": {
      "beneficiary()": {
        "return": "the beneficiary of the escrow."
      },
      "beneficiaryWithdraw()": {
        "details": "Withdraws the beneficiary's funds."
      },
      "close()": {
        "details": "Allows for the beneficiary to withdraw their funds, rejecting further deposits."
      },
      "constructor": {
        "details": "Constructor"
      },
      "deposit(address)": {
        "details": "Stores funds that may later be refunded.",
        "params": {
          "refundee": "The address funds will be sent to if a refund occurs."
        }
      },
      "enableRefunds()": {
        "details": "Allows for refunds to take place, rejecting further deposits."
      },
      "primary()": {
        "return": "the address of the primary."
      },
      "state()": {
        "return": "the current state of the escrow."
      },
      "transferPrimary(address)": {
        "details": "Transfers contract to a new primary.",
        "params": {
          "recipient": "The address of new primary."
        }
      },
      "withdrawalAllowed(address)": {
        "details": "Returns whether refundees can withdraw their deposits (be refunded). The overridden function receives a 'payee' argument, but we ignore it here since the condition is global, not per-payee."
      }
    }
  },
  "userdoc": {
    "methods": {}
  }
}