{
  "contractName": "SalesContract",
  "abi": [
    {
      "constant": false,
      "inputs": [
        {
          "name": "",
          "type": "address"
        },
        {
          "name": "",
          "type": "address"
        },
        {
          "name": "",
          "type": "uint256"
        },
        {
          "name": "",
          "type": "bytes"
        }
      ],
      "name": "onERC721Received",
      "outputs": [
        {
          "name": "",
          "type": "bytes4"
        }
      ],
      "payable": false,
      "stateMutability": "nonpayable",
      "type": "function"
    },
    {
      "constant": true,
      "inputs": [],
      "name": "erc721Address",
      "outputs": [
        {
          "name": "",
          "type": "address"
        }
      ],
      "payable": false,
      "stateMutability": "view",
      "type": "function"
    },
    {
      "constant": true,
      "inputs": [],
      "name": "funderEscrowAddress",
      "outputs": [
        {
          "name": "",
          "type": "address"
        }
      ],
      "payable": false,
      "stateMutability": "view",
      "type": "function"
    },
    {
      "constant": true,
      "inputs": [
        {
          "name": "",
          "type": "uint256"
        }
      ],
      "name": "assetTerms",
      "outputs": [
        {
          "name": "_basePrice",
          "type": "uint256"
        },
        {
          "name": "_estimatedTaxAndShipmentAmount",
          "type": "uint256"
        },
        {
          "name": "_isSold",
          "type": "bool"
        },
        {
          "name": "_shippingHash",
          "type": "bytes32"
        }
      ],
      "payable": false,
      "stateMutability": "view",
      "type": "function"
    },
    {
      "constant": true,
      "inputs": [],
      "name": "atomicTransferStatus",
      "outputs": [
        {
          "name": "",
          "type": "bool"
        }
      ],
      "payable": false,
      "stateMutability": "view",
      "type": "function"
    },
    {
      "constant": false,
      "inputs": [],
      "name": "renounceOwnership",
      "outputs": [],
      "payable": false,
      "stateMutability": "nonpayable",
      "type": "function"
    },
    {
      "constant": true,
      "inputs": [],
      "name": "owner",
      "outputs": [
        {
          "name": "",
          "type": "address"
        }
      ],
      "payable": false,
      "stateMutability": "view",
      "type": "function"
    },
    {
      "constant": true,
      "inputs": [],
      "name": "isOwner",
      "outputs": [
        {
          "name": "",
          "type": "bool"
        }
      ],
      "payable": false,
      "stateMutability": "view",
      "type": "function"
    },
    {
      "constant": true,
      "inputs": [],
      "name": "secondaryState",
      "outputs": [
        {
          "name": "",
          "type": "uint8"
        }
      ],
      "payable": false,
      "stateMutability": "view",
      "type": "function"
    },
    {
      "constant": true,
      "inputs": [
        {
          "name": "",
          "type": "address"
        },
        {
          "name": "",
          "type": "uint256"
        }
      ],
      "name": "assetsOfOwner",
      "outputs": [
        {
          "name": "",
          "type": "uint256"
        }
      ],
      "payable": false,
      "stateMutability": "view",
      "type": "function"
    },
    {
      "constant": true,
      "inputs": [],
      "name": "assetTokenAddress",
      "outputs": [
        {
          "name": "",
          "type": "address"
        }
      ],
      "payable": false,
      "stateMutability": "view",
      "type": "function"
    },
    {
      "constant": false,
      "inputs": [
        {
          "name": "newOwner",
          "type": "address"
        }
      ],
      "name": "transferOwnership",
      "outputs": [],
      "payable": false,
      "stateMutability": "nonpayable",
      "type": "function"
    },
    {
      "inputs": [
        {
          "name": "addressNFT",
          "type": "address"
        },
        {
          "name": "addressFT",
          "type": "address"
        },
        {
          "name": "tokenId",
          "type": "uint256"
        },
        {
          "name": "basePrice",
          "type": "uint256"
        },
        {
          "name": "tokenOwner",
          "type": "address"
        }
      ],
      "payable": false,
      "stateMutability": "nonpayable",
      "type": "constructor"
    },
    {
      "anonymous": false,
      "inputs": [
        {
          "indexed": true,
          "name": "oldOwner",
          "type": "address"
        },
        {
          "indexed": true,
          "name": "newOwner",
          "type": "address"
        },
        {
          "indexed": true,
          "name": "basePrice",
          "type": "uint256"
        },
        {
          "indexed": false,
          "name": "timestamp",
          "type": "uint256"
        }
      ],
      "name": "AssetOwnershipTransferred",
      "type": "event"
    },
    {
      "anonymous": false,
      "inputs": [
        {
          "indexed": true,
          "name": "previousOwner",
          "type": "address"
        },
        {
          "indexed": true,
          "name": "newOwner",
          "type": "address"
        }
      ],
      "name": "OwnershipTransferred",
      "type": "event"
    },
    {
      "constant": false,
      "inputs": [
        {
          "name": "_contractAddress",
          "type": "address"
        }
      ],
      "name": "setFunderEscrowAddress",
      "outputs": [],
      "payable": false,
      "stateMutability": "nonpayable",
      "type": "function"
    },
    {
      "constant": false,
      "inputs": [
        {
          "name": "tokenId",
          "type": "uint256"
        },
        {
          "name": "basePrice",
          "type": "uint256"
        },
        {
          "name": "_tokenOwner",
          "type": "address"
        }
      ],
      "name": "setAssetDetails",
      "outputs": [],
      "payable": false,
      "stateMutability": "nonpayable",
      "type": "function"
    },
    {
      "constant": false,
      "inputs": [
        {
          "name": "_newBasePrice",
          "type": "uint256"
        },
        {
          "name": "_tokenId",
          "type": "uint256"
        }
      ],
      "name": "increaseBasePrice",
      "outputs": [],
      "payable": false,
      "stateMutability": "nonpayable",
      "type": "function"
    },
    {
      "constant": false,
      "inputs": [
        {
          "name": "_estimatedTaxAndShipmentAmount",
          "type": "uint256"
        },
        {
          "name": "_tokenId",
          "type": "uint256"
        },
        {
          "name": "_soldBy",
          "type": "bool"
        }
      ],
      "name": "buy",
      "outputs": [],
      "payable": false,
      "stateMutability": "nonpayable",
      "type": "function"
    },
    {
      "constant": false,
      "inputs": [
        {
          "name": "_buyer",
          "type": "address"
        },
        {
          "name": "_tokenId",
          "type": "uint256"
        },
        {
          "name": "_amount",
          "type": "uint256"
        },
        {
          "name": "_hashOfShipmentDetails",
          "type": "bytes32"
        },
        {
          "name": "_shippingAgency",
          "type": "address"
        }
      ],
      "name": "getTaxAndShipmentAmount",
      "outputs": [],
      "payable": false,
      "stateMutability": "nonpayable",
      "type": "function"
    },
    {
      "constant": false,
      "inputs": [
        {
          "name": "_buyer",
          "type": "address"
        },
        {
          "name": "_tokenId",
          "type": "uint256"
        },
        {
          "name": "_amount",
          "type": "uint256"
        }
      ],
      "name": "buyExitClause",
      "outputs": [],
      "payable": false,
      "stateMutability": "nonpayable",
      "type": "function"
    },
    {
      "constant": true,
      "inputs": [
        {
          "name": "_tokenId",
          "type": "uint256"
        }
      ],
      "name": "getAssetDetails",
      "outputs": [
        {
          "name": "",
          "type": "uint256"
        },
        {
          "name": "",
          "type": "bool"
        },
        {
          "name": "",
          "type": "uint256"
        },
        {
          "name": "",
          "type": "uint256"
        },
        {
          "name": "",
          "type": "bytes32"
        }
      ],
      "payable": false,
      "stateMutability": "view",
      "type": "function"
    }
  ],
  "bytecode": "0x60806040523480156200001157600080fd5b5060405160a08062003693833981018060405260a08110156200003357600080fd5b810190808051906020019092919080519060200190929190805190602001909291908051906020019092919080519060200190929190505050336000806101000a81548173ffffffffffffffffffffffffffffffffffffffff021916908373ffffffffffffffffffffffffffffffffffffffff1602179055506000809054906101000a900473ffffffffffffffffffffffffffffffffffffffff1673ffffffffffffffffffffffffffffffffffffffff16600073ffffffffffffffffffffffffffffffffffffffff167f8be0079c531659141344cd1fd0a4f28419497f9722a3daafe3b4186f6b6457e060405160405180910390a3600073ffffffffffffffffffffffffffffffffffffffff168573ffffffffffffffffffffffffffffffffffffffff1614151515620001b2576040517f08c379a000000000000000000000000000000000000000000000000000000000815260040180806020018281038252603f8152602001806200358b603f913960400191505060405180910390fd5b600073ffffffffffffffffffffffffffffffffffffffff168473ffffffffffffffffffffffffffffffffffffffff16141515156200023c576040517f08c379a000000000000000000000000000000000000000000000000000000000815260040180806020018281038252603e8152602001806200360d603e913960400191505060405180910390fd5b84600160006101000a81548173ffffffffffffffffffffffffffffffffffffffff021916908373ffffffffffffffffffffffffffffffffffffffff16021790555083600260006101000a81548173ffffffffffffffffffffffffffffffffffffffff021916908373ffffffffffffffffffffffffffffffffffffffff160217905550620002da838383620002e5640100000000026401000000009004565b50505050506200075c565b600160009054906101000a900473ffffffffffffffffffffffffffffffffffffffff1673ffffffffffffffffffffffffffffffffffffffff16636352211e846040518263ffffffff167c01000000000000000000000000000000000000000000000000000000000281526004018082815260200191505060206040518083038186803b1580156200037557600080fd5b505afa1580156200038a573d6000803e3d6000fd5b505050506040513d6020811015620003a157600080fd5b810190808051906020019092919050505073ffffffffffffffffffffffffffffffffffffffff168173ffffffffffffffffffffffffffffffffffffffff1614151562000439576040517f08c379a00000000000000000000000000000000000000000000000000000000081526004018080602001828103825260488152602001806200364b6048913960600191505060405180910390fd5b60008211151562000496576040517f08c379a0000000000000000000000000000000000000000000000000000000008152600401808060200182810382526043815260200180620035ca6043913960600191505060405180910390fd5b6000620004cd8273ffffffffffffffffffffffffffffffffffffffff16620007266401000000000262001e4e176401000000009004565b1515620005ab57600460003373ffffffffffffffffffffffffffffffffffffffff1673ffffffffffffffffffffffffffffffffffffffff168152602001908152602001600020849080600181540180825580915050906001820390600052602060002001600090919290919091505550620005a36001600460003373ffffffffffffffffffffffffffffffffffffffff1673ffffffffffffffffffffffffffffffffffffffff16815260200190815260200160002080549050620007396401000000000262002268179091906401000000009004565b90506200067d565b600460008373ffffffffffffffffffffffffffffffffffffffff1673ffffffffffffffffffffffffffffffffffffffff1681526020019081526020016000208490806001815401808255809150509060018203906000526020600020016000909192909190915055506200067a6001600460008573ffffffffffffffffffffffffffffffffffffffff1673ffffffffffffffffffffffffffffffffffffffff16815260200190815260200160002080549050620007396401000000000262002268179091906401000000009004565b90505b60806040519081016040528084815260200160008152602001600015158152602001600060010281525060056000838152602001908152602001600020600082015181600001556020820151816001015560408201518160020160006101000a81548160ff021916908315150217905550606082015181600301559050506000600360146101000a81548160ff021916908360038111156200071b57fe5b021790555050505050565b600080823b905060008111915050919050565b60008282111515156200074b57600080fd5b600082840390508091505092915050565b612e1f806200076c6000396000f3fe608060405234801561001057600080fd5b506004361061013e576000357c01000000000000000000000000000000000000000000000000000000009004806355c51a31116100ca578063a1f24b3d1161008e578063a1f24b3d146105fb578063a9265a121461065d578063b6b97225146106bf578063c343488314610709578063f2fde38b1461074d5761013e565b806355c51a3114610501578063715018a6146105595780638da5cb5b146105635780638f32d59b146105ad5780639c303785146105cf5761013e565b806334f21dff1161011157806334f21dff1461037457806336bdc6c5146103b8578063376b84de1461040257806340f08e871461045d578063420269bf146104df5761013e565b8063063a006e14610143578063150b7a021461017b5780631fdfa70d146102d25780632352a8641461032a575b600080fd5b6101796004803603604081101561015957600080fd5b810190808035906020019092919080359060200190929190505050610791565b005b61027e6004803603608081101561019157600080fd5b81019080803573ffffffffffffffffffffffffffffffffffffffff169060200190929190803573ffffffffffffffffffffffffffffffffffffffff16906020019092919080359060200190929190803590602001906401000000008111156101f857600080fd5b82018360208201111561020a57600080fd5b8035906020019184600183028401116401000000008311171561022c57600080fd5b91908080601f016020809104026020016040519081016040528093929190818152602001838380828437600081840152601f19601f8201169050808301925050505050505091929192905050506109ac565b60405180827bffffffffffffffffffffffffffffffffffffffffffffffffffffffff19167bffffffffffffffffffffffffffffffffffffffffffffffffffffffff1916815260200191505060405180910390f35b610328600480360360608110156102e857600080fd5b81019080803573ffffffffffffffffffffffffffffffffffffffff16906020019092919080359060200190929190803590602001909291905050506109dc565b005b610332610d5d565b604051808273ffffffffffffffffffffffffffffffffffffffff1673ffffffffffffffffffffffffffffffffffffffff16815260200191505060405180910390f35b6103b66004803603602081101561038a57600080fd5b81019080803573ffffffffffffffffffffffffffffffffffffffff169060200190929190505050610d83565b005b6103c0610e50565b604051808273ffffffffffffffffffffffffffffffffffffffff1673ffffffffffffffffffffffffffffffffffffffff16815260200191505060405180910390f35b61042e6004803603602081101561041857600080fd5b8101908080359060200190929190505050610e76565b604051808581526020018481526020018315151515815260200182815260200194505050505060405180910390f35b6104dd600480360360a081101561047357600080fd5b81019080803573ffffffffffffffffffffffffffffffffffffffff169060200190929190803590602001909291908035906020019092919080359060200190929190803573ffffffffffffffffffffffffffffffffffffffff169060200190929190505050610eb3565b005b6104e76110df565b604051808215151515815260200191505060405180910390f35b6105576004803603606081101561051757600080fd5b810190808035906020019092919080359060200190929190803573ffffffffffffffffffffffffffffffffffffffff1690602001909291905050506110f2565b005b6105616114f3565b005b61056b6115c5565b604051808273ffffffffffffffffffffffffffffffffffffffff1673ffffffffffffffffffffffffffffffffffffffff16815260200191505060405180910390f35b6105b56115ee565b604051808215151515815260200191505060405180910390f35b6105d7611645565b604051808260038111156105e757fe5b60ff16815260200191505060405180910390f35b6106276004803603602081101561061157600080fd5b8101908080359060200190929190505050611658565b60405180868152602001851515151581526020018481526020018381526020018281526020019550505050505060405180910390f35b6106a96004803603604081101561067357600080fd5b81019080803573ffffffffffffffffffffffffffffffffffffffff16906020019092919080359060200190929190505050611771565b6040518082815260200191505060405180910390f35b6106c76117a1565b604051808273ffffffffffffffffffffffffffffffffffffffff1673ffffffffffffffffffffffffffffffffffffffff16815260200191505060405180910390f35b61074b6004803603606081101561071f57600080fd5b8101908080359060200190929190803590602001909291908035151590602001909291905050506117c7565b005b61078f6004803603602081101561076357600080fd5b81019080803573ffffffffffffffffffffffffffffffffffffffff169060200190929190505050611a53565b005b600080600381111561079f57fe5b600360149054906101000a900460ff1660038111156107ba57fe5b141515610812576040517f08c379a0000000000000000000000000000000000000000000000000000000008152600401808060200182810382526032815260200180612d266032913960400191505060405180910390fd5b6000806000806000600160009054906101000a900473ffffffffffffffffffffffffffffffffffffffff1673ffffffffffffffffffffffffffffffffffffffff16636352211e886040518263ffffffff167c01000000000000000000000000000000000000000000000000000000000281526004018082815260200191505060206040518083038186803b1580156108a957600080fd5b505afa1580156108bd573d6000803e3d6000fd5b505050506040513d60208110156108d357600080fd5b810190808051906020019092919050505073ffffffffffffffffffffffffffffffffffffffff163373ffffffffffffffffffffffffffffffffffffffff16141515610969576040517f08c379a000000000000000000000000000000000000000000000000000000000815260040180806020018281038252604a815260200180612c2a604a913960600191505060405180910390fd5b6109733388611a72565b80955081965082995083975084985050505050508760056000878152602001908152602001600020600001819055505050505050505050565b600063150b7a027c0100000000000000000000000000000000000000000000000000000000029050949350505050565b6000600360009054906101000a900473ffffffffffffffffffffffffffffffffffffffff1673ffffffffffffffffffffffffffffffffffffffff16636e29b7cc6040518163ffffffff167c010000000000000000000000000000000000000000000000000000000002815260040160206040518083038186803b158015610a6257600080fd5b505afa158015610a76573d6000803e3d6000fd5b505050506040513d6020811015610a8c57600080fd5b810190808051906020019092919050505090508082141515610af9576040517f08c379a0000000000000000000000000000000000000000000000000000000008152600401808060200182810382526041815260200180612c746041913960600191505060405180910390fd5b600360009054906101000a900473ffffffffffffffffffffffffffffffffffffffff1673ffffffffffffffffffffffffffffffffffffffff16631f6be68685856040518363ffffffff167c0100000000000000000000000000000000000000000000000000000000028152600401808373ffffffffffffffffffffffffffffffffffffffff1673ffffffffffffffffffffffffffffffffffffffff16815260200182815260200192505050602060405180830381600087803b158015610bbe57600080fd5b505af1158015610bd2573d6000803e3d6000fd5b505050506040513d6020811015610be857600080fd5b81019080805190602001909291905050501515610c50576040517f08c379a0000000000000000000000000000000000000000000000000000000008152600401808060200182810382526039815260200180612b386039913960400191505060405180910390fd5b6000600160009054906101000a900473ffffffffffffffffffffffffffffffffffffffff1673ffffffffffffffffffffffffffffffffffffffff16636352211e856040518263ffffffff167c01000000000000000000000000000000000000000000000000000000000281526004018082815260200191505060206040518083038186803b158015610ce157600080fd5b505afa158015610cf5573d6000803e3d6000fd5b505050506040513d6020811015610d0b57600080fd5b810190808051906020019092919050505090506000806000806000610d30868a611a72565b8095508196508299508397508498505050505050610d50868b8b88611bdc565b5050505050505050505050565b600160009054906101000a900473ffffffffffffffffffffffffffffffffffffffff1681565b610d8b6115ee565b1515610d9657600080fd5b610db58173ffffffffffffffffffffffffffffffffffffffff16611e4e565b1515610e0c576040517f08c379a0000000000000000000000000000000000000000000000000000000008152600401808060200182810382526043815260200180612bc46043913960600191505060405180910390fd5b80600360006101000a81548173ffffffffffffffffffffffffffffffffffffffff021916908373ffffffffffffffffffffffffffffffffffffffff16021790555050565b600360009054906101000a900473ffffffffffffffffffffffffffffffffffffffff1681565b60056020528060005260406000206000915090508060000154908060010154908060020160009054906101000a900460ff16908060030154905084565b6002806003811115610ec157fe5b600360149054906101000a900460ff166003811115610edc57fe5b141515610f34576040517f08c379a0000000000000000000000000000000000000000000000000000000008152600401808060200182810382526032815260200180612d266032913960400191505060405180910390fd5b600080600080600080600160009054906101000a900473ffffffffffffffffffffffffffffffffffffffff1673ffffffffffffffffffffffffffffffffffffffff16636352211e8c6040518263ffffffff167c01000000000000000000000000000000000000000000000000000000000281526004018082815260200191505060206040518083038186803b158015610fcc57600080fd5b505afa158015610fe0573d6000803e3d6000fd5b505050506040513d6020811015610ff657600080fd5b81019080805190602001909291905050509050611013818c611a72565b809650819750829a50839850849950505050505089600560008881526020019081526020016000206001015410151515611098576040517f08c379a0000000000000000000000000000000000000000000000000000000008152600401808060200182810382526053815260200180612b716053913960600191505060405180910390fd5b600115156110a78d308d611e61565b151514156110d157600115156110bd898c611fa0565b151514156110d0576110cf8b8a6120aa565b5b5b505050505050505050505050565b600360159054906101000a900460ff1681565b600160009054906101000a900473ffffffffffffffffffffffffffffffffffffffff1673ffffffffffffffffffffffffffffffffffffffff16636352211e846040518263ffffffff167c01000000000000000000000000000000000000000000000000000000000281526004018082815260200191505060206040518083038186803b15801561118157600080fd5b505afa158015611195573d6000803e3d6000fd5b505050506040513d60208110156111ab57600080fd5b810190808051906020019092919050505073ffffffffffffffffffffffffffffffffffffffff168173ffffffffffffffffffffffffffffffffffffffff16141515611241576040517f08c379a0000000000000000000000000000000000000000000000000000000008152600401808060200182810382526048815260200180612dac6048913960600191505060405180910390fd5b60008211151561129c576040517f08c379a0000000000000000000000000000000000000000000000000000000008152600401808060200182810382526043815260200180612af56043913960600191505060405180910390fd5b60006112bd8273ffffffffffffffffffffffffffffffffffffffff16611e4e565b151561138957600460003373ffffffffffffffffffffffffffffffffffffffff1673ffffffffffffffffffffffffffffffffffffffff1681526020019081526020016000208490806001815401808255809150509060018203906000526020600020016000909192909190915055506113826001600460003373ffffffffffffffffffffffffffffffffffffffff1673ffffffffffffffffffffffffffffffffffffffff1681526020019081526020016000208054905061226890919063ffffffff16565b905061144b565b600460008373ffffffffffffffffffffffffffffffffffffffff1673ffffffffffffffffffffffffffffffffffffffff1681526020019081526020016000208490806001815401808255809150509060018203906000526020600020016000909192909190915055506114486001600460008573ffffffffffffffffffffffffffffffffffffffff1673ffffffffffffffffffffffffffffffffffffffff1681526020019081526020016000208054905061226890919063ffffffff16565b90505b60806040519081016040528084815260200160008152602001600015158152602001600060010281525060056000838152602001908152602001600020600082015181600001556020820151816001015560408201518160020160006101000a81548160ff021916908315150217905550606082015181600301559050506000600360146101000a81548160ff021916908360038111156114e857fe5b021790555050505050565b6114fb6115ee565b151561150657600080fd5b600073ffffffffffffffffffffffffffffffffffffffff166000809054906101000a900473ffffffffffffffffffffffffffffffffffffffff1673ffffffffffffffffffffffffffffffffffffffff167f8be0079c531659141344cd1fd0a4f28419497f9722a3daafe3b4186f6b6457e060405160405180910390a360008060006101000a81548173ffffffffffffffffffffffffffffffffffffffff021916908373ffffffffffffffffffffffffffffffffffffffff160217905550565b60008060009054906101000a900473ffffffffffffffffffffffffffffffffffffffff16905090565b60008060009054906101000a900473ffffffffffffffffffffffffffffffffffffffff1673ffffffffffffffffffffffffffffffffffffffff163373ffffffffffffffffffffffffffffffffffffffff1614905090565b600360149054906101000a900460ff1681565b600080600080600080600160009054906101000a900473ffffffffffffffffffffffffffffffffffffffff1673ffffffffffffffffffffffffffffffffffffffff16636352211e886040518263ffffffff167c01000000000000000000000000000000000000000000000000000000000281526004018082815260200191505060206040518083038186803b1580156116f057600080fd5b505afa158015611704573d6000803e3d6000fd5b505050506040513d602081101561171a57600080fd5b81019080805190602001909291905050509050600080600080600061173f868d611a72565b809550819650829950839750849850505050505083838684849a509a509a509a509a5050505050505091939590929450565b60046020528160005260406000208181548110151561178c57fe5b90600052602060002001600091509150505481565b600260009054906101000a900473ffffffffffffffffffffffffffffffffffffffff1681565b60008060038111156117d557fe5b600360149054906101000a900460ff1660038111156117f057fe5b141515611848576040517f08c379a0000000000000000000000000000000000000000000000000000000008152600401808060200182810382526032815260200180612d266032913960400191505060405180910390fd5b600073ffffffffffffffffffffffffffffffffffffffff163373ffffffffffffffffffffffffffffffffffffffff16141515156118d0576040517f08c379a0000000000000000000000000000000000000000000000000000000008152600401808060200182810382526036815260200180612cf06036913960400191505060405180910390fd5b6000600160009054906101000a900473ffffffffffffffffffffffffffffffffffffffff1673ffffffffffffffffffffffffffffffffffffffff16636352211e856040518263ffffffff167c01000000000000000000000000000000000000000000000000000000000281526004018082815260200191505060206040518083038186803b15801561196157600080fd5b505afa158015611975573d6000803e3d6000fd5b505050506040513d602081101561198b57600080fd5b8101908080519060200190929190505050905060008060008060006119b0868a611a72565b809550819650829950839750849850505050505082151515611a1d576040517f08c379a0000000000000000000000000000000000000000000000000000000008152600401808060200182810382526023815260200180612c076023913960400191505060405180910390fd5b896005600087815260200190815260200160002060010181905550611a463385888c898d61228a565b5050505050505050505050565b611a5b6115ee565b1515611a6657600080fd5b611a6f81612986565b50565b6000806000806000806000600460008a73ffffffffffffffffffffffffffffffffffffffff1673ffffffffffffffffffffffffffffffffffffffff16815260200190815260200160002080549050905060008090505b81811015611b435788600460008c73ffffffffffffffffffffffffffffffffffffffff1673ffffffffffffffffffffffffffffffffffffffff16815260200190815260200160002082815481101515611b1d57fe5b90600052602060002001541415611b3657809250611b43565b8080600101915050611ac8565b5060006005600084815260200190815260200160002060000154905060006005600085815260200190815260200160002060020160009054906101000a900460ff16905060006005600086815260200190815260200160002060010154905060006005600087815260200190815260200160002060030154905083838784849a509a509a509a509a505050505050509295509295909350565b6000600160009054906101000a900473ffffffffffffffffffffffffffffffffffffffff1673ffffffffffffffffffffffffffffffffffffffff166342842e0e8686866040518463ffffffff167c0100000000000000000000000000000000000000000000000000000000028152600401808473ffffffffffffffffffffffffffffffffffffffff1673ffffffffffffffffffffffffffffffffffffffff1681526020018373ffffffffffffffffffffffffffffffffffffffff1673ffffffffffffffffffffffffffffffffffffffff1681526020018281526020019350505050600060405180830381600087803b158015611cd757600080fd5b505af1158015611ceb573d6000803e3d6000fd5b505050508373ffffffffffffffffffffffffffffffffffffffff16600160009054906101000a900473ffffffffffffffffffffffffffffffffffffffff1673ffffffffffffffffffffffffffffffffffffffff16636352211e856040518263ffffffff167c01000000000000000000000000000000000000000000000000000000000281526004018082815260200191505060206040518083038186803b158015611d9557600080fd5b505afa158015611da9573d6000803e3d6000fd5b505050506040513d6020811015611dbf57600080fd5b810190808051906020019092919050505073ffffffffffffffffffffffffffffffffffffffff16141515611def57fe5b60016005600084815260200190815260200160002060020160006101000a81548160ff0219169083151502179055506002600360146101000a81548160ff02191690836003811115611e3d57fe5b021790555060019050949350505050565b600080823b905060008111915050919050565b6000600260009054906101000a900473ffffffffffffffffffffffffffffffffffffffff1673ffffffffffffffffffffffffffffffffffffffff166323b872dd8585856040518463ffffffff167c0100000000000000000000000000000000000000000000000000000000028152600401808473ffffffffffffffffffffffffffffffffffffffff1673ffffffffffffffffffffffffffffffffffffffff1681526020018373ffffffffffffffffffffffffffffffffffffffff1673ffffffffffffffffffffffffffffffffffffffff1681526020018281526020019350505050602060405180830381600087803b158015611f5c57600080fd5b505af1158015611f70573d6000803e3d6000fd5b505050506040513d6020811015611f8657600080fd5b810190808051906020019092919050505090509392505050565b6000600260009054906101000a900473ffffffffffffffffffffffffffffffffffffffff1673ffffffffffffffffffffffffffffffffffffffff1663a9059cbb84846040518363ffffffff167c0100000000000000000000000000000000000000000000000000000000028152600401808373ffffffffffffffffffffffffffffffffffffffff1673ffffffffffffffffffffffffffffffffffffffff16815260200182815260200192505050602060405180830381600087803b15801561206757600080fd5b505af115801561207b573d6000803e3d6000fd5b505050506040513d602081101561209157600080fd5b8101908080519060200190929190505050905092915050565b60028060038111156120b857fe5b600360149054906101000a900460ff1660038111156120d357fe5b14151561212b576040517f08c379a0000000000000000000000000000000000000000000000000000000008152600401808060200182810382526032815260200180612d266032913960400191505060405180910390fd5b6000600160009054906101000a900473ffffffffffffffffffffffffffffffffffffffff1673ffffffffffffffffffffffffffffffffffffffff16636352211e856040518263ffffffff167c01000000000000000000000000000000000000000000000000000000000281526004018082815260200191505060206040518083038186803b1580156121bc57600080fd5b505afa1580156121d0573d6000803e3d6000fd5b505050506040513d60208110156121e657600080fd5b81019080805190602001909291905050509050600080600080600061220b868a611a72565b809550819650829950839750849850505050505087600560008781526020019081526020016000206003018190555060038060146101000a81548160ff0219169083600381111561225857fe5b0217905550505050505050505050565b600082821115151561227957600080fd5b600082840390508091505092915050565b6000600160009054906101000a900473ffffffffffffffffffffffffffffffffffffffff1673ffffffffffffffffffffffffffffffffffffffff1663081812fc856040518263ffffffff167c01000000000000000000000000000000000000000000000000000000000281526004018082815260200191505060206040518083038186803b15801561231b57600080fd5b505afa15801561232f573d6000803e3d6000fd5b505050506040513d602081101561234557600080fd5b810190808051906020019092919050505073ffffffffffffffffffffffffffffffffffffffff163073ffffffffffffffffffffffffffffffffffffffff1614806124b55750600160009054906101000a900473ffffffffffffffffffffffffffffffffffffffff1673ffffffffffffffffffffffffffffffffffffffff1663e985e9c586306040518363ffffffff167c0100000000000000000000000000000000000000000000000000000000028152600401808373ffffffffffffffffffffffffffffffffffffffff1673ffffffffffffffffffffffffffffffffffffffff1681526020018273ffffffffffffffffffffffffffffffffffffffff1673ffffffffffffffffffffffffffffffffffffffff1681526020019250505060206040518083038186803b15801561247957600080fd5b505afa15801561248d573d6000803e3d6000fd5b505050506040513d60208110156124a357600080fd5b81019080805190602001909291905050505b151561250c576040517f08c379a0000000000000000000000000000000000000000000000000000000008152600401808060200182810382526054815260200180612d586054913960600191505060405180910390fd5b85600260009054906101000a900473ffffffffffffffffffffffffffffffffffffffff1673ffffffffffffffffffffffffffffffffffffffff1663dd62ed3e89306040518363ffffffff167c0100000000000000000000000000000000000000000000000000000000028152600401808373ffffffffffffffffffffffffffffffffffffffff1673ffffffffffffffffffffffffffffffffffffffff1681526020018273ffffffffffffffffffffffffffffffffffffffff1673ffffffffffffffffffffffffffffffffffffffff1681526020019250505060206040518083038186803b1580156125fc57600080fd5b505afa158015612610573d6000803e3d6000fd5b505050506040513d602081101561262657600080fd5b810190808051906020019092919050505010151515612690576040517f08c379a0000000000000000000000000000000000000000000000000000000008152600401808060200182810382526039815260200180612abc6039913960400191505060405180910390fd5b61269b878688611e61565b15156126f2576040517f08c379a000000000000000000000000000000000000000000000000000000000815260040180806020018281038252603b815260200180612a81603b913960400191505060405180910390fd5b6001600360146101000a81548160ff0219169083600381111561271157fe5b021790555061272285888686611bdc565b1515612779576040517f08c379a000000000000000000000000000000000000000000000000000000000815260040180806020018281038252603b815260200180612cb5603b913960400191505060405180910390fd5b858773ffffffffffffffffffffffffffffffffffffffff168673ffffffffffffffffffffffffffffffffffffffff167f183526b90cb8f5c53033ceef31be6dad2142976034289aab63d51e2c8faa6326426040518082815260200191505060405180910390a4600073ffffffffffffffffffffffffffffffffffffffff16600360009054906101000a900473ffffffffffffffffffffffffffffffffffffffff1673ffffffffffffffffffffffffffffffffffffffff16141515156128a6576040517f08c379a000000000000000000000000000000000000000000000000000000000815260040180806020018281038252601f8152602001807f506c65617365207365742066756e646572457363726f7720616464726573730081525060200191505060405180910390fd5b6128c58573ffffffffffffffffffffffffffffffffffffffff16611e4e565b1561297857600360009054906101000a900473ffffffffffffffffffffffffffffffffffffffff1673ffffffffffffffffffffffffffffffffffffffff16636fe8e3e8836040518263ffffffff167c01000000000000000000000000000000000000000000000000000000000281526004018082151515158152602001915050600060405180830381600087803b15801561295f57600080fd5b505af1158015612973573d6000803e3d6000fd5b505050505b600190509695505050505050565b600073ffffffffffffffffffffffffffffffffffffffff168173ffffffffffffffffffffffffffffffffffffffff16141515156129c257600080fd5b8073ffffffffffffffffffffffffffffffffffffffff166000809054906101000a900473ffffffffffffffffffffffffffffffffffffffff1673ffffffffffffffffffffffffffffffffffffffff167f8be0079c531659141344cd1fd0a4f28419497f9722a3daafe3b4186f6b6457e060405160405180910390a3806000806101000a81548173ffffffffffffffffffffffffffffffffffffffff021916908373ffffffffffffffffffffffffffffffffffffffff1602179055505056fe696e2053616c6573436f6e74726163743a61746f6d69635472616e7366657228292e20546f6b656e207472616e73666572726564206661696c6564696e2053616c6573436f6e74726163743a61746f6d69635472616e7366657228292e20496e73756666696369656e7420616c6c6f77616e6365696e2053616c6573436f6e74726163743a736574417373657444657461696c7328292e20626173655072696365206973206e6f742067726561746572207468616e2030696e2053616c6573436f6e74726163743a62757945786974436c6175736528292e204661696c656420696e2046756e646572457363726f772e696e2053616c6573436f6e74726163743a676574546178416e64536869706d656e74416d6f756e7428292e20457374696d6174656420746178202b20736869706d656e7420616d6f756e74206973206c657373696e2053616c6573436f6e74726163743a73657446756e646572457363726f774164647265737328292e2050726f7669646564206164647265737320697320454f412e5468652072657175657374656420617373657420697320616c726561647920736f6c64696e2053616c6573436f6e74726163743a696e63726561736542617365507269636528292e206d73672e73656e646572206973206e6f7420746865206f776e6572206f66206173736574696e2053616c6573436f6e74726163743a62757945786974436c6175736528292e20496e73756666696369656e74206578697420636c6175736520616d6f756e74696e2053616c6573436f6e74726163743a61746f6d69635472616e7366657228292e204661696c656420746f207472616e73666572206173736574696e2053616c6573436f6e74726163743a62757928292e205468652062757965722063616e6e6f742062652061646472657373283029696e2053616c6573436f6e74726163743a76616c6964537461746528292e2053746174657320646f206e6f74206d61746368696e2053616c6573436f6e74726163743a61746f6d69635472616e7366657228292e2053616c6573436f6e7472616374206973206e65697468657220617070726f766564206e6f7220616e206f70657261746f72696e2053616c6573436f6e74726163743a736574417373657444657461696c7328292e206d73672e73656e646572206973206e6f7420746865206f776e6572206f66206173736574a165627a7a72305820e00d83feca56a5c1e9d67f9a267a6e8d62824d775b551b474e6fa47b6adaae8d0029696e2053616c6573436f6e74726163743a636f6e7374727563746f7228292e20616464726573734e46542063616e6e6f742062652061646472657373283029696e2053616c6573436f6e74726163743a736574417373657444657461696c7328292e20626173655072696365206973206e6f742067726561746572207468616e2030696e2053616c6573436f6e74726163743a636f6e7374727563746f7228292e206164647265737346542063616e6e6f742062652061646472657373283029696e2053616c6573436f6e74726163743a736574417373657444657461696c7328292e206d73672e73656e646572206973206e6f7420746865206f776e6572206f66206173736574",
  "source": "/**\n* Create by Balaji on 04/01/2019\n*/\npragma solidity 0.5.2;\nimport \"./ERC721/ArtToken.sol\";\nimport \"./ERC20/AssetToken.sol\";\nimport \"openzeppelin-solidity/contracts/utils/Address.sol\";\nimport \"./FunderEscrow.sol\";\nimport \"openzeppelin-solidity/contracts/ownership/Ownable.sol\";\nimport \"openzeppelin-solidity/contracts/token/ERC721/ERC721Holder.sol\";\n/**\n* @author Balaji Pachai\n* @title SalesContract\n* @dev SalesContract that is intended to facilitate the trade of ERC721 tokens\n*/\n\n\ncontract SalesContract is Ownable, ERC721Holder {\n    using SafeMath for uint256;\n    using Address for address;\n\n    ArtToken public erc721Address;\n    AssetToken public assetTokenAddress;\n    FunderEscrow public funderEscrowAddress;\n    SecondaryState public secondaryState;\n\n    bool public atomicTransferStatus;\n\n    enum SecondaryState { Start, BuyRequest, PayTaxAndShipment, Sold }\n\n    mapping(address => uint256[]) public assetsOfOwner;\n    mapping(uint256 => Terms) public assetTerms;\n\n    event AssetOwnershipTransferred(\n        address indexed oldOwner,\n        address indexed newOwner,\n        uint indexed basePrice,\n        uint timestamp\n    );\n\n    modifier validState(SecondaryState _state) {\n        require(secondaryState == _state, \"in SalesContract:validState(). States do not match\");\n        _;\n    }\n\n    struct Terms {\n        uint256 _basePrice;\n        uint256 _estimatedTaxAndShipmentAmount;\n        bool _isSold;\n        bytes32 _shippingHash;\n    }\n\n    /**\n    * @dev Constructor.\n    * @param addressNFT The address of the ERC721 contract.\n    * @param addressFT The address of the ERC20 contract.\n    */\n    //TODO @balaji coverage breaks at line No: 44:33, identify it\n    constructor(\n        address addressNFT,\n        address addressFT,\n        uint256 tokenId,\n        uint256 basePrice,\n        address tokenOwner\n    ) public {\n        require(addressNFT != address(0), \"in SalesContract:constructor(). addressNFT cannot be address(0)\");\n        require(addressFT != address(0), \"in SalesContract:constructor(). addressFT cannot be address(0)\");\n        erc721Address = ArtToken(addressNFT);\n        assetTokenAddress = AssetToken(addressFT);\n        setAssetDetails(tokenId, basePrice, tokenOwner);\n    }\n\n    function setFunderEscrowAddress(address _contractAddress) public onlyOwner {\n        require(_contractAddress.isContract(), \"in SalesContract:setFunderEscrowAddress(). Provided address is EOA.\");\n        funderEscrowAddress = FunderEscrow(_contractAddress);\n    }\n    /**\n    * @dev Function that sets the asset details for the given ERC721 tokenId\n    * @param tokenId The ERC721 token's ID.\n    * @param basePrice The base price of the asset excluding the taxes and shipment charges.\n    */\n    function setAssetDetails (uint256 tokenId, uint256 basePrice, address _tokenOwner) public {\n        require(\n            _tokenOwner == erc721Address.ownerOf(tokenId),\n            \"in SalesContract:setAssetDetails(). msg.sender is not the owner of asset\"\n        );\n        require(basePrice > 0, \"in SalesContract:setAssetDetails(). basePrice is not greater than 0\");\n        uint256 length;\n        if (!_tokenOwner.isContract()) {\n            assetsOfOwner[msg.sender].push(tokenId);\n            length = assetsOfOwner[msg.sender].length.sub(1);\n        } else {\n            assetsOfOwner[_tokenOwner].push(tokenId);\n            length = assetsOfOwner[_tokenOwner].length.sub(1);\n        }\n        assetTerms[length] = Terms({\n            _basePrice: basePrice,\n            _isSold: false,\n            _estimatedTaxAndShipmentAmount: 0,\n            _shippingHash: bytes32(0)\n        });\n        //TODO @balaji Add the assets into the bucket here\n        secondaryState = SecondaryState.Start;\n    }\n\n\n    /**\n    * Function to increase the basePrice of the Asset.\n    * @param _newBasePrice The new base price for the asset.\n    * @param _tokenId The ERC721 token's ID.\n    */\n    //TODO @balaji How to get this into FunderEscrow?\n    function increaseBasePrice(uint256 _newBasePrice, uint256 _tokenId) public validState(SecondaryState.Start) {\n        uint256 index;\n        uint256 basePrice;\n        bool isSold;\n        uint256 estimatedTaxAndShipment;\n        bytes32 shippingHash;\n        require(\n            msg.sender == erc721Address.ownerOf(_tokenId),\n            \"in SalesContract:increaseBasePrice(). msg.sender is not the owner of asset\"\n        );\n        ( basePrice, isSold, index, estimatedTaxAndShipment, shippingHash) = getTerms(msg.sender, _tokenId);\n        assetTerms[index]._basePrice = _newBasePrice;\n    }\n\n    /**\n    * @dev Function that initiates the buying of an asset(ERC721 token to be specific).\n    * @param _estimatedTaxAndShipmentAmount The estimation of tax + shipment amount.\n    * @param _tokenId The ERC721 token's ID.\n    */\n    function buy(\n        uint256 _estimatedTaxAndShipmentAmount,\n        uint256 _tokenId,\n        bool _soldBy\n    ) public validState(SecondaryState.Start) {\n        require(msg.sender != address(0), \"in SalesContract:buy(). The buyer cannot be address(0)\"); // Code coverage else path cannot be covered, Why? Have a look at CoverageReportReadme.md in the root dir\n        address owner = erc721Address.ownerOf(_tokenId);\n        uint256 index;\n        uint256 basePrice;\n        bool isSold;\n        uint256 estimatedTaxAndShipment;\n        bytes32 shippingHash;\n        (basePrice, isSold, index, estimatedTaxAndShipment, shippingHash) = getTerms(owner, _tokenId);\n        require(!isSold, \"The requested asset is already sold\"); // Code coverage else path cannot be covered, Why? Have a look at CoverageReportReadme.md in the root dir\n        assetTerms[index]._estimatedTaxAndShipmentAmount = _estimatedTaxAndShipmentAmount;\n        atomicTransfer(msg.sender, basePrice, owner, _tokenId, index, _soldBy) ;\n    }\n\n    /**\n    * @dev Function that pulls in the tax and shipment amount into the escrow.\n    * @param _buyer The address of the buyer.\n    * @param _tokenId The ERC721 token's ID.\n    * @param _amount The sum of tax and shipment amount.\n    */\n    function getTaxAndShipmentAmount(\n        address _buyer, uint256 _tokenId, uint256 _amount, bytes32 _hashOfShipmentDetails, address _shippingAgency\n    )\n    public\n    validState(SecondaryState.PayTaxAndShipment)\n    {\n        uint256 index;\n        uint256 basePrice;\n        bool isSold;\n        uint256 estimatedTaxAndShipment;\n        bytes32 shippingHash;\n        address owner = erc721Address.ownerOf(_tokenId);\n        (basePrice, isSold, index, estimatedTaxAndShipment, shippingHash) = getTerms(owner, _tokenId);\n        require(\n            assetTerms[index]._estimatedTaxAndShipmentAmount >= _amount,\n                \"in SalesContract:getTaxAndShipmentAmount(). Estimated tax + shipment amount is less\"\n        );\n\n        if (transferTokensFrom(_buyer, address(this), _amount) == true) {\n            if (transferTokens(_shippingAgency, _amount) == true) {\n                shipAsset(_tokenId, _hashOfShipmentDetails);\n            }\n        }\n    }\n\n    /**\n    * Function that sells the print to the funder in case of exit clause additional payment to buy\n    */\n    function buyExitClause(address _buyer, uint256 _tokenId, uint256 _amount) public {\n        uint256 exitClauseAmount = funderEscrowAddress.EXIT_CLAUSE_PAYOUT_FROM_AEL();\n        require(_amount == exitClauseAmount, \"in SalesContract:buyExitClause(). Insufficient exit clause amount\");\n        require(\n            funderEscrowAddress.exitClauseAdditionalPaymentToBuy(_buyer, _tokenId),\n                \"in SalesContract:buyExitClause(). Failed in FunderEscrow.\"\n        );\n        address owner = erc721Address.ownerOf(_tokenId);\n        uint256 index;\n        uint256 basePrice;\n        bool isSold;\n        uint256 estimatedTaxAndShipment;\n        bytes32 shippingHash;\n        ( basePrice, isSold, index, estimatedTaxAndShipment, shippingHash) = getTerms(owner, _tokenId);\n        transferAsset(owner, _buyer, _tokenId, index);\n    }\n\n    /**\n    * Function that gets the assets details of the provided _tokenId\n    * @param _tokenId The ERC721 token's ID.\n    */\n    function getAssetDetails(uint256 _tokenId) public view returns (uint256, bool, uint256, uint256, bytes32) {\n        address owner = erc721Address.ownerOf(_tokenId);\n        uint256 index;\n        uint256 basePrice;\n        bool isSold;\n        uint256 estimatedTaxAndShipment;\n        bytes32 shippingHash;\n        ( basePrice, isSold, index, estimatedTaxAndShipment, shippingHash) = getTerms(owner, _tokenId);\n        return (basePrice, isSold, index, estimatedTaxAndShipment, shippingHash);\n    }\n\n    /**\n        * @dev Function that ships the asset from the owner to the buyer.\n        * @param _tokenId The ERC721 token's ID.\n        * @param _hashOfShipmentDetails The hash of shipment details.\n        */\n    function shipAsset(\n        uint256 _tokenId, bytes32 _hashOfShipmentDetails\n    )\n    internal\n    validState(SecondaryState.PayTaxAndShipment) {\n        address owner = erc721Address.ownerOf(_tokenId);\n        uint256 index;\n        uint256 basePrice;\n        bool isSold;\n        uint256 estimatedTaxAndShipment;\n        bytes32 shippingHash;\n        ( basePrice, isSold, index, estimatedTaxAndShipment, shippingHash) = getTerms(owner, _tokenId);\n        assetTerms[index]._shippingHash = _hashOfShipmentDetails;\n        secondaryState = SecondaryState.Sold;\n    }\n\n    /**\n    * @dev Internal function to pull in tokens into the escrow.\n    * @param _buyer The address from whom the tokens have to be pulled in.\n    * @param _amount The amount of tokens to be pulled in.\n    * @param _owner The owner to whom the tokens has to be transferred from the escrow.\n    * @param _tokenId The ERC721 token's ID.\n    */\n    function atomicTransfer(\n        address _buyer, uint256 _amount, address _owner, uint256 _tokenId, uint256 _tokenIndex, bool _soldBy\n    )\n    internal\n    returns (bool) {\n        // Code coverage else path cannot be covered, Why? Have a look at CoverageReportReadme.md in the root dir\n        require(\n            address(this) == erc721Address.getApproved(_tokenId)\n            || erc721Address.isApprovedForAll(_owner, address(this)),\n            \"in SalesContract:atomicTransfer(). SalesContract is neither approved nor an operator\"\n        );\n\n        require(\n            assetTokenAddress.allowance(_buyer, address(this)) >= _amount,\n                \"in SalesContract:atomicTransfer(). Insufficient allowance\"\n        );\n\n        require(\n            transferTokensFrom(_buyer, _owner, _amount),\n                \"in SalesContract:atomicTransfer(). Token transferred failed\"\n        );\n\n        secondaryState = SecondaryState.BuyRequest;\n\n        require(\n            transferAsset(_owner, _buyer, _tokenId, _tokenIndex),\n                \"in SalesContract:atomicTransfer(). Failed to transfer asset\"\n        );\n\n        emit AssetOwnershipTransferred(_owner, _buyer, _amount, now);\n\n        require(address(funderEscrowAddress) != address(0), \"Please set funderEscrow address\");\n        if(_owner.isContract()) {\n            funderEscrowAddress.onSpecificPerformance(_soldBy);\n        }\n        return true;\n    }\n\n    /**\n    * @dev Function that transfers the ERC721 Token\n    * @param _owner The owner of the asset\n    * @param _buyer The address to whom the asset will be transferred\n    * @param _tokenId The unique ERC721 asset ID\n    */\n    function transferAsset(\n        address _owner, address _buyer, uint256 _tokenId, uint256 _tokenIndex\n    ) internal returns (bool){\n        erc721Address.safeTransferFrom(_owner, _buyer, _tokenId);\n        assert(erc721Address.ownerOf(_tokenId) == _buyer); // Code coverage else path cannot be covered, Why? Have a look at CoverageReportReadme.md in the root dir\n        assetTerms[_tokenIndex]._isSold = true;\n        secondaryState = SecondaryState.PayTaxAndShipment;\n        return true;\n    }\n\n    /**\n    * @dev Function that transfers the tokens.\n    * @param _receiver The receiver's address.\n    * @param _amount The amount to transfer.\n    */\n    function transferTokens(address _receiver, uint256 _amount) internal returns (bool) {\n        return assetTokenAddress.transfer(_receiver, _amount);\n    }\n\n    /**\n    * @param _from The address from whom the tokens have to be pulled in.\n    * @param _to The address that will spend the tokens on behalf of the _sender.\n    * @param _amount The amount of tokens to be pulled in.\n    */\n    function transferTokensFrom(address _from, address _to, uint256 _amount) internal returns (bool) {\n        return assetTokenAddress.transferFrom(_from, _to, _amount);\n    }\n\n    /**\n    * @dev Function that gets the terms details such as _basePrice & _isSold.\n    * @param owner The address of the owner of the assets.\n    * @param tokenId The ERC721's token id.\n    * @return Returns the basePrice and isSold details of the asset.\n    */\n    function getTerms(address owner, uint256 tokenId) internal view returns (uint256, bool, uint256, uint256, bytes32) {\n        uint256 index;\n        uint256 length = assetsOfOwner[owner].length;\n        for (uint256 i = 0; i < length; i++) {\n            // Code coverage else path cannot be covered, Why? Have a look at CoverageReportReadme.md in the root dir\n            if (assetsOfOwner[owner][i] == tokenId) {\n                index = i;\n                break;\n            }\n        }\n        uint256 basePrice = assetTerms[index]._basePrice;\n        bool isSold = assetTerms[index]._isSold;\n        uint256 estimatedTaxAndShipmentAmount = assetTerms[index]._estimatedTaxAndShipmentAmount;\n        bytes32 shippingHash = assetTerms[index]._shippingHash;\n        return (basePrice, isSold, index, estimatedTaxAndShipmentAmount, shippingHash);\n    }\n}\n",
  "sourcePath": "/home/node/app/contracts/SalesContract.sol",
  "compiler": {
    "name": "solc",
    "version": "0.5.2+commit.1df8f40c.Emscripten.clang"
  },
  "schemaVersion": "3.0.19",
  "updatedAt": "2019-12-04T10:41:17.146Z",
  "networkType": "ethereum",
  "devdoc": {
    "author": "Balaji Pachai",
    "details": "SalesContract that is intended to facilitate the trade of ERC721 tokens",
    "methods": {
      "buy(uint256,uint256,bool)": {
        "details": "Function that initiates the buying of an asset(ERC721 token to be specific).",
        "params": {
          "_estimatedTaxAndShipmentAmount": "The estimation of tax + shipment amount.",
          "_tokenId": "The ERC721 token's ID."
        }
      },
      "constructor": {
        "details": "Constructor.",
        "params": {
          "addressFT": "The address of the ERC20 contract.",
          "addressNFT": "The address of the ERC721 contract."
        }
      },
      "getAssetDetails(uint256)": {
        "params": {
          "_tokenId": "The ERC721 token's ID."
        }
      },
      "getTaxAndShipmentAmount(address,uint256,uint256,bytes32,address)": {
        "details": "Function that pulls in the tax and shipment amount into the escrow.",
        "params": {
          "_amount": "The sum of tax and shipment amount.",
          "_buyer": "The address of the buyer.",
          "_tokenId": "The ERC721 token's ID."
        }
      },
      "increaseBasePrice(uint256,uint256)": {
        "params": {
          "_newBasePrice": "The new base price for the asset.",
          "_tokenId": "The ERC721 token's ID."
        }
      },
      "isOwner()": {
        "return": "true if `msg.sender` is the owner of the contract."
      },
      "owner()": {
        "return": "the address of the owner."
      },
      "renounceOwnership()": {
        "details": "Allows the current owner to relinquish control of the contract. It will not be possible to call the functions with the `onlyOwner` modifier anymore."
      },
      "setAssetDetails(uint256,uint256,address)": {
        "details": "Function that sets the asset details for the given ERC721 tokenId",
        "params": {
          "basePrice": "The base price of the asset excluding the taxes and shipment charges.",
          "tokenId": "The ERC721 token's ID."
        }
      },
      "transferOwnership(address)": {
        "details": "Allows the current owner to transfer control of the contract to a newOwner.",
        "params": {
          "newOwner": "The address to transfer ownership to."
        }
      }
    },
    "title": "SalesContract"
  },
  "userdoc": {
    "methods": {
      "buyExitClause(address,uint256,uint256)": {
        "notice": "Function that sells the print to the funder in case of exit clause additional payment to buy"
      },
      "getAssetDetails(uint256)": {
        "notice": "Function that gets the assets details of the provided _tokenId"
      },
      "increaseBasePrice(uint256,uint256)": {
        "notice": "Function to increase the basePrice of the Asset."
      },
      "renounceOwnership()": {
        "notice": "Renouncing ownership will leave the contract without an owner, thereby removing any functionality that is only available to the owner."
      }
    }
  }
}